{
	"data": {
		"bytecode": {
			"linkReferences": {},
			"object": "608060405234801561000f575f80fd5b50604051610e25380380610e2583398101604081905261002e91610070565b5f80546001600160a01b0384166001600160a01b0319918216179091556001805490911633179055600281905561006581426100a7565b600355506100cc9050565b5f8060408385031215610081575f80fd5b82516001600160a01b0381168114610097575f80fd5b6020939093015192949293505050565b808201808211156100c657634e487b7160e01b5f52601160045260245ffd5b92915050565b610d4c806100d95f395ff3fe608060405234801561000f575f80fd5b50600436106100a6575f3560e01c806388ac3ea11161006e57806388ac3ea1146100ff5780638c44c530146101125780638da5cb5b1461011a578063c98706c314610145578063e529930a1461014d578063efa274ef1461015f575f80fd5b806336dff6b6146100aa57806341c0e1b5146100c65780634359b7ef146100d0578063457f3cb0146100e3578063838c29b6146100f6575b5f80fd5b6100b360035481565b6040519081526020015b60405180910390f35b6100ce610172565b005b6100ce6100de366004610b2e565b6101d1565b6100ce6100f1366004610b72565b610269565b6100b360025481565b6100ce61010d366004610b72565b610327565b6100ce610556565b60015461012d906001600160a01b031681565b6040516001600160a01b0390911681526020016100bd565b6100ce610627565b5f5461012d906001600160a01b031681565b6100ce61016d366004610b89565b6108f4565b6001546001600160a01b031633146101a55760405162461bcd60e51b815260040161019c90610bcb565b60405180910390fd5b60405133904780156108fc02915f818181858888f193505050501580156101ce573d5f803e3d5ffd5b50565b6001546001600160a01b031633146101fb5760405162461bcd60e51b815260040161019c90610bcb565b6040518281527f4896f6f06b46d0ebc6bd420e59b05a5e5486f3a5a2e306e20def08c8f284f3749060200160405180910390a17f6e001753e59c246317b708b3090a58d44776f3b9e74dcd996149a49758f4d4878160405161025d9190610c35565b60405180910390a15050565b6001546001600160a01b031633146102935760405162461bcd60e51b815260040161019c90610bcb565b5f6102a282633b9aca00610c62565b9050804710156102eb5760405162461bcd60e51b8152602060048201526014602482015273496e73756666696369656e742062616c616e636560601b604482015260640161019c565b6001546040516001600160a01b039091169082156108fc029083905f818181858888f19350505050158015610322573d5f803e3d5ffd5b505050565b6001546001600160a01b031633146103515760405162461bcd60e51b815260040161019c90610bcb565b60408051600880825261012082019092525f916020820161010080368337019050509050610384815f8151811061038a5761038a610c7f565b602002602001018181525050610708816001815181106103ac576103ac610c7f565b602002602001018181525050610e10816002815181106103ce576103ce610c7f565b602002602001018181525050611c20816003815181106103f0576103f0610c7f565b6020026020010181815250506138408160048151811061041257610412610c7f565b6020026020010181815250506170808160058151811061043457610434610c7f565b602002602001018181525050620151808160068151811061045757610457610c7f565b60200260200101818152505062093a808160078151811061047a5761047a610c7f565b6020026020010181815250505f81838151811061049957610499610c7f565b60209081029190910101515f5460405163869665e960e01b8152600481018390529192506001600160a01b03169063869665e9906024015f604051808303815f87803b1580156104e7575f80fd5b505af11580156104f9573d5f803e3d5ffd5b505050505f80516020610cf783398151915281604051610549919060408082526013908201527241646a757374696e672074696d656672616d6560681b6060820152602081019190915260800190565b60405180910390a1505050565b6001546001600160a01b031633146105805760405162461bcd60e51b815260040161019c90610bcb565b6040517f7541b06c3dec9fdc83c6c723dc48e42d9b1632a4ab380f150eb91c2e6fc310b9905f90a15f805460408051639d8ef1e160e01b815290516001600160a01b0390921692639d8ef1e19260048084019382900301818387803b1580156105e7575f80fd5b505af11580156105f9573d5f803e3d5ffd5b50506040517f9dc90ce348fed0b93ddbc45640ba9e0ab32f42e205a3c0b452fb17474b96e1c092505f9150a1565b6001546001600160a01b031633146106515760405162461bcd60e51b815260040161019c90610bcb565b6003544210156106af5760405162461bcd60e51b8152602060048201526024808201527f49742773206e6f742074696d6520666f7220746865206e65787420636865636b604482015263081e595d60e21b606482015260840161019c565b5f805f9054906101000a90046001600160a01b03166001600160a01b0316638fc3047d6040518163ffffffff1660e01b8152600401602060405180830381865afa1580156106ff573d5f803e3d5ffd5b505050506040513d601f19601f820116820180604052508101906107239190610c93565b90507f4896f6f06b46d0ebc6bd420e59b05a5e5486f3a5a2e306e20def08c8f284f3744260405161075691815260200190565b60405180910390a161041a811115610826575f546040516326c403ed60e01b81526001600160a01b03909116906326c403ed906107b9906064906004016040808252600490820152631cd95b1b60e21b6060820152602081019190915260800190565b5f604051808303815f87803b1580156107d0575f80fd5b505af11580156107e2573d5f803e3d5ffd5b505060408051818152600481830152631cd95b1b60e21b60608201526064602082015290515f80516020610cf78339815191529350908190036080019150a16108e1565b6103b68110156108e1575f54604080516326c403ed60e01b81526004810191909152600360448201526262757960e81b60648083019190915260248201526001600160a01b03909116906326c403ed906084015f604051808303815f87803b158015610890575f80fd5b505af11580156108a2573d5f803e3d5ffd5b5050604080518181526003818301526262757960e81b60608201526064602082015290515f80516020610cf78339815191529350908190036080019150a15b6002546108ee9042610caa565b60035550565b6001546001600160a01b0316331461091e5760405162461bcd60e51b815260040161019c90610bcb565b5f805b60038210801561092f575080155b156109ce575f546040516326c403ed60e01b81526001600160a01b03909116906326c403ed906109659087908790600401610cbd565b5f604051808303815f87803b15801561097c575f80fd5b505af192505050801561098d575060015b61099f5761099a826109d4565b610921565b600190505f80516020610cf783398151915284846040516109c1929190610cbd565b60405180910390a1610921565b50505050565b60038110610a87575f8054604080516317700f0160e01b815290516001600160a01b03909216926317700f019260048084019382900301818387803b158015610a1b575f80fd5b505af1158015610a2d573d5f803e3d5ffd5b505060408051818152601c818301527f53746f702064756520746f2070657273697374656e74206572726f720000000060608201525f602082015290515f80516020610cf78339815191529350908190036080019150a150565b8061032281610cde565b634e487b7160e01b5f52604160045260245ffd5b5f82601f830112610ab4575f80fd5b813567ffffffffffffffff80821115610acf57610acf610a91565b604051601f8301601f19908116603f01168101908282118183101715610af757610af7610a91565b81604052838152866020858801011115610b0f575f80fd5b836020870160208301375f602085830101528094505050505092915050565b5f8060408385031215610b3f575f80fd5b82359150602083013567ffffffffffffffff811115610b5c575f80fd5b610b6885828601610aa5565b9150509250929050565b5f60208284031215610b82575f80fd5b5035919050565b5f8060408385031215610b9a575f80fd5b823567ffffffffffffffff811115610bb0575f80fd5b610bbc85828601610aa5565b95602094909401359450505050565b6020808252600d908201526c2737ba103a34329037bbb732b960991b604082015260600190565b5f81518084525f5b81811015610c1657602081850181015186830182015201610bfa565b505f602082860101526020601f19601f83011685010191505092915050565b602081525f610c476020830184610bf2565b9392505050565b634e487b7160e01b5f52601160045260245ffd5b8082028115828204841417610c7957610c79610c4e565b92915050565b634e487b7160e01b5f52603260045260245ffd5b5f60208284031215610ca3575f80fd5b5051919050565b80820180821115610c7957610c79610c4e565b604081525f610ccf6040830185610bf2565b90508260208301529392505050565b5f60018201610cef57610cef610c4e565b506001019056fe573f22c312382d046159d834aa0e9f7c23b7ba1ba8c9ff20b839b47844686e88a264697066735822122060e631a870370823e7287b2615831e7aa9884c024dc9d44288a0bc42ad6e0f4864736f6c63430008140033",
			"opcodes": "PUSH1 0x80 PUSH1 0x40 MSTORE CALLVALUE DUP1 ISZERO PUSH2 0xF JUMPI PUSH0 DUP1 REVERT JUMPDEST POP PUSH1 0x40 MLOAD PUSH2 0xE25 CODESIZE SUB DUP1 PUSH2 0xE25 DUP4 CODECOPY DUP2 ADD PUSH1 0x40 DUP2 SWAP1 MSTORE PUSH2 0x2E SWAP2 PUSH2 0x70 JUMP JUMPDEST PUSH0 DUP1 SLOAD PUSH1 0x1 PUSH1 0x1 PUSH1 0xA0 SHL SUB DUP5 AND PUSH1 0x1 PUSH1 0x1 PUSH1 0xA0 SHL SUB NOT SWAP2 DUP3 AND OR SWAP1 SWAP2 SSTORE PUSH1 0x1 DUP1 SLOAD SWAP1 SWAP2 AND CALLER OR SWAP1 SSTORE PUSH1 0x2 DUP2 SWAP1 SSTORE PUSH2 0x65 DUP2 TIMESTAMP PUSH2 0xA7 JUMP JUMPDEST PUSH1 0x3 SSTORE POP PUSH2 0xCC SWAP1 POP JUMP JUMPDEST PUSH0 DUP1 PUSH1 0x40 DUP4 DUP6 SUB SLT ISZERO PUSH2 0x81 JUMPI PUSH0 DUP1 REVERT JUMPDEST DUP3 MLOAD PUSH1 0x1 PUSH1 0x1 PUSH1 0xA0 SHL SUB DUP2 AND DUP2 EQ PUSH2 0x97 JUMPI PUSH0 DUP1 REVERT JUMPDEST PUSH1 0x20 SWAP4 SWAP1 SWAP4 ADD MLOAD SWAP3 SWAP5 SWAP3 SWAP4 POP POP POP JUMP JUMPDEST DUP1 DUP3 ADD DUP1 DUP3 GT ISZERO PUSH2 0xC6 JUMPI PUSH4 0x4E487B71 PUSH1 0xE0 SHL PUSH0 MSTORE PUSH1 0x11 PUSH1 0x4 MSTORE PUSH1 0x24 PUSH0 REVERT JUMPDEST SWAP3 SWAP2 POP POP JUMP JUMPDEST PUSH2 0xD4C DUP1 PUSH2 0xD9 PUSH0 CODECOPY PUSH0 RETURN INVALID PUSH1 0x80 PUSH1 0x40 MSTORE CALLVALUE DUP1 ISZERO PUSH2 0xF JUMPI PUSH0 DUP1 REVERT JUMPDEST POP PUSH1 0x4 CALLDATASIZE LT PUSH2 0xA6 JUMPI PUSH0 CALLDATALOAD PUSH1 0xE0 SHR DUP1 PUSH4 0x88AC3EA1 GT PUSH2 0x6E JUMPI DUP1 PUSH4 0x88AC3EA1 EQ PUSH2 0xFF JUMPI DUP1 PUSH4 0x8C44C530 EQ PUSH2 0x112 JUMPI DUP1 PUSH4 0x8DA5CB5B EQ PUSH2 0x11A JUMPI DUP1 PUSH4 0xC98706C3 EQ PUSH2 0x145 JUMPI DUP1 PUSH4 0xE529930A EQ PUSH2 0x14D JUMPI DUP1 PUSH4 0xEFA274EF EQ PUSH2 0x15F JUMPI PUSH0 DUP1 REVERT JUMPDEST DUP1 PUSH4 0x36DFF6B6 EQ PUSH2 0xAA JUMPI DUP1 PUSH4 0x41C0E1B5 EQ PUSH2 0xC6 JUMPI DUP1 PUSH4 0x4359B7EF EQ PUSH2 0xD0 JUMPI DUP1 PUSH4 0x457F3CB0 EQ PUSH2 0xE3 JUMPI DUP1 PUSH4 0x838C29B6 EQ PUSH2 0xF6 JUMPI JUMPDEST PUSH0 DUP1 REVERT JUMPDEST PUSH2 0xB3 PUSH1 0x3 SLOAD DUP2 JUMP JUMPDEST PUSH1 0x40 MLOAD SWAP1 DUP2 MSTORE PUSH1 0x20 ADD JUMPDEST PUSH1 0x40 MLOAD DUP1 SWAP2 SUB SWAP1 RETURN JUMPDEST PUSH2 0xCE PUSH2 0x172 JUMP JUMPDEST STOP JUMPDEST PUSH2 0xCE PUSH2 0xDE CALLDATASIZE PUSH1 0x4 PUSH2 0xB2E JUMP JUMPDEST PUSH2 0x1D1 JUMP JUMPDEST PUSH2 0xCE PUSH2 0xF1 CALLDATASIZE PUSH1 0x4 PUSH2 0xB72 JUMP JUMPDEST PUSH2 0x269 JUMP JUMPDEST PUSH2 0xB3 PUSH1 0x2 SLOAD DUP2 JUMP JUMPDEST PUSH2 0xCE PUSH2 0x10D CALLDATASIZE PUSH1 0x4 PUSH2 0xB72 JUMP JUMPDEST PUSH2 0x327 JUMP JUMPDEST PUSH2 0xCE PUSH2 0x556 JUMP JUMPDEST PUSH1 0x1 SLOAD PUSH2 0x12D SWAP1 PUSH1 0x1 PUSH1 0x1 PUSH1 0xA0 SHL SUB AND DUP2 JUMP JUMPDEST PUSH1 0x40 MLOAD PUSH1 0x1 PUSH1 0x1 PUSH1 0xA0 SHL SUB SWAP1 SWAP2 AND DUP2 MSTORE PUSH1 0x20 ADD PUSH2 0xBD JUMP JUMPDEST PUSH2 0xCE PUSH2 0x627 JUMP JUMPDEST PUSH0 SLOAD PUSH2 0x12D SWAP1 PUSH1 0x1 PUSH1 0x1 PUSH1 0xA0 SHL SUB AND DUP2 JUMP JUMPDEST PUSH2 0xCE PUSH2 0x16D CALLDATASIZE PUSH1 0x4 PUSH2 0xB89 JUMP JUMPDEST PUSH2 0x8F4 JUMP JUMPDEST PUSH1 0x1 SLOAD PUSH1 0x1 PUSH1 0x1 PUSH1 0xA0 SHL SUB AND CALLER EQ PUSH2 0x1A5 JUMPI PUSH1 0x40 MLOAD PUSH3 0x461BCD PUSH1 0xE5 SHL DUP2 MSTORE PUSH1 0x4 ADD PUSH2 0x19C SWAP1 PUSH2 0xBCB JUMP JUMPDEST PUSH1 0x40 MLOAD DUP1 SWAP2 SUB SWAP1 REVERT JUMPDEST PUSH1 0x40 MLOAD CALLER SWAP1 SELFBALANCE DUP1 ISZERO PUSH2 0x8FC MUL SWAP2 PUSH0 DUP2 DUP2 DUP2 DUP6 DUP9 DUP9 CALL SWAP4 POP POP POP POP ISZERO DUP1 ISZERO PUSH2 0x1CE JUMPI RETURNDATASIZE PUSH0 DUP1 RETURNDATACOPY RETURNDATASIZE PUSH0 REVERT JUMPDEST POP JUMP JUMPDEST PUSH1 0x1 SLOAD PUSH1 0x1 PUSH1 0x1 PUSH1 0xA0 SHL SUB AND CALLER EQ PUSH2 0x1FB JUMPI PUSH1 0x40 MLOAD PUSH3 0x461BCD PUSH1 0xE5 SHL DUP2 MSTORE PUSH1 0x4 ADD PUSH2 0x19C SWAP1 PUSH2 0xBCB JUMP JUMPDEST PUSH1 0x40 MLOAD DUP3 DUP2 MSTORE PUSH32 0x4896F6F06B46D0EBC6BD420E59B05A5E5486F3A5A2E306E20DEF08C8F284F374 SWAP1 PUSH1 0x20 ADD PUSH1 0x40 MLOAD DUP1 SWAP2 SUB SWAP1 LOG1 PUSH32 0x6E001753E59C246317B708B3090A58D44776F3B9E74DCD996149A49758F4D487 DUP2 PUSH1 0x40 MLOAD PUSH2 0x25D SWAP2 SWAP1 PUSH2 0xC35 JUMP JUMPDEST PUSH1 0x40 MLOAD DUP1 SWAP2 SUB SWAP1 LOG1 POP POP JUMP JUMPDEST PUSH1 0x1 SLOAD PUSH1 0x1 PUSH1 0x1 PUSH1 0xA0 SHL SUB AND CALLER EQ PUSH2 0x293 JUMPI PUSH1 0x40 MLOAD PUSH3 0x461BCD PUSH1 0xE5 SHL DUP2 MSTORE PUSH1 0x4 ADD PUSH2 0x19C SWAP1 PUSH2 0xBCB JUMP JUMPDEST PUSH0 PUSH2 0x2A2 DUP3 PUSH4 0x3B9ACA00 PUSH2 0xC62 JUMP JUMPDEST SWAP1 POP DUP1 SELFBALANCE LT ISZERO PUSH2 0x2EB JUMPI PUSH1 0x40 MLOAD PUSH3 0x461BCD PUSH1 0xE5 SHL DUP2 MSTORE PUSH1 0x20 PUSH1 0x4 DUP3 ADD MSTORE PUSH1 0x14 PUSH1 0x24 DUP3 ADD MSTORE PUSH20 0x496E73756666696369656E742062616C616E6365 PUSH1 0x60 SHL PUSH1 0x44 DUP3 ADD MSTORE PUSH1 0x64 ADD PUSH2 0x19C JUMP JUMPDEST PUSH1 0x1 SLOAD PUSH1 0x40 MLOAD PUSH1 0x1 PUSH1 0x1 PUSH1 0xA0 SHL SUB SWAP1 SWAP2 AND SWAP1 DUP3 ISZERO PUSH2 0x8FC MUL SWAP1 DUP4 SWAP1 PUSH0 DUP2 DUP2 DUP2 DUP6 DUP9 DUP9 CALL SWAP4 POP POP POP POP ISZERO DUP1 ISZERO PUSH2 0x322 JUMPI RETURNDATASIZE PUSH0 DUP1 RETURNDATACOPY RETURNDATASIZE PUSH0 REVERT JUMPDEST POP POP POP JUMP JUMPDEST PUSH1 0x1 SLOAD PUSH1 0x1 PUSH1 0x1 PUSH1 0xA0 SHL SUB AND CALLER EQ PUSH2 0x351 JUMPI PUSH1 0x40 MLOAD PUSH3 0x461BCD PUSH1 0xE5 SHL DUP2 MSTORE PUSH1 0x4 ADD PUSH2 0x19C SWAP1 PUSH2 0xBCB JUMP JUMPDEST PUSH1 0x40 DUP1 MLOAD PUSH1 0x8 DUP1 DUP3 MSTORE PUSH2 0x120 DUP3 ADD SWAP1 SWAP3 MSTORE PUSH0 SWAP2 PUSH1 0x20 DUP3 ADD PUSH2 0x100 DUP1 CALLDATASIZE DUP4 CALLDATACOPY ADD SWAP1 POP POP SWAP1 POP PUSH2 0x384 DUP2 PUSH0 DUP2 MLOAD DUP2 LT PUSH2 0x38A JUMPI PUSH2 0x38A PUSH2 0xC7F JUMP JUMPDEST PUSH1 0x20 MUL PUSH1 0x20 ADD ADD DUP2 DUP2 MSTORE POP POP PUSH2 0x708 DUP2 PUSH1 0x1 DUP2 MLOAD DUP2 LT PUSH2 0x3AC JUMPI PUSH2 0x3AC PUSH2 0xC7F JUMP JUMPDEST PUSH1 0x20 MUL PUSH1 0x20 ADD ADD DUP2 DUP2 MSTORE POP POP PUSH2 0xE10 DUP2 PUSH1 0x2 DUP2 MLOAD DUP2 LT PUSH2 0x3CE JUMPI PUSH2 0x3CE PUSH2 0xC7F JUMP JUMPDEST PUSH1 0x20 MUL PUSH1 0x20 ADD ADD DUP2 DUP2 MSTORE POP POP PUSH2 0x1C20 DUP2 PUSH1 0x3 DUP2 MLOAD DUP2 LT PUSH2 0x3F0 JUMPI PUSH2 0x3F0 PUSH2 0xC7F JUMP JUMPDEST PUSH1 0x20 MUL PUSH1 0x20 ADD ADD DUP2 DUP2 MSTORE POP POP PUSH2 0x3840 DUP2 PUSH1 0x4 DUP2 MLOAD DUP2 LT PUSH2 0x412 JUMPI PUSH2 0x412 PUSH2 0xC7F JUMP JUMPDEST PUSH1 0x20 MUL PUSH1 0x20 ADD ADD DUP2 DUP2 MSTORE POP POP PUSH2 0x7080 DUP2 PUSH1 0x5 DUP2 MLOAD DUP2 LT PUSH2 0x434 JUMPI PUSH2 0x434 PUSH2 0xC7F JUMP JUMPDEST PUSH1 0x20 MUL PUSH1 0x20 ADD ADD DUP2 DUP2 MSTORE POP POP PUSH3 0x15180 DUP2 PUSH1 0x6 DUP2 MLOAD DUP2 LT PUSH2 0x457 JUMPI PUSH2 0x457 PUSH2 0xC7F JUMP JUMPDEST PUSH1 0x20 MUL PUSH1 0x20 ADD ADD DUP2 DUP2 MSTORE POP POP PUSH3 0x93A80 DUP2 PUSH1 0x7 DUP2 MLOAD DUP2 LT PUSH2 0x47A JUMPI PUSH2 0x47A PUSH2 0xC7F JUMP JUMPDEST PUSH1 0x20 MUL PUSH1 0x20 ADD ADD DUP2 DUP2 MSTORE POP POP PUSH0 DUP2 DUP4 DUP2 MLOAD DUP2 LT PUSH2 0x499 JUMPI PUSH2 0x499 PUSH2 0xC7F JUMP JUMPDEST PUSH1 0x20 SWAP1 DUP2 MUL SWAP2 SWAP1 SWAP2 ADD ADD MLOAD PUSH0 SLOAD PUSH1 0x40 MLOAD PUSH4 0x869665E9 PUSH1 0xE0 SHL DUP2 MSTORE PUSH1 0x4 DUP2 ADD DUP4 SWAP1 MSTORE SWAP2 SWAP3 POP PUSH1 0x1 PUSH1 0x1 PUSH1 0xA0 SHL SUB AND SWAP1 PUSH4 0x869665E9 SWAP1 PUSH1 0x24 ADD PUSH0 PUSH1 0x40 MLOAD DUP1 DUP4 SUB DUP2 PUSH0 DUP8 DUP1 EXTCODESIZE ISZERO DUP1 ISZERO PUSH2 0x4E7 JUMPI PUSH0 DUP1 REVERT JUMPDEST POP GAS CALL ISZERO DUP1 ISZERO PUSH2 0x4F9 JUMPI RETURNDATASIZE PUSH0 DUP1 RETURNDATACOPY RETURNDATASIZE PUSH0 REVERT JUMPDEST POP POP POP POP PUSH0 DUP1 MLOAD PUSH1 0x20 PUSH2 0xCF7 DUP4 CODECOPY DUP2 MLOAD SWAP2 MSTORE DUP2 PUSH1 0x40 MLOAD PUSH2 0x549 SWAP2 SWAP1 PUSH1 0x40 DUP1 DUP3 MSTORE PUSH1 0x13 SWAP1 DUP3 ADD MSTORE PUSH19 0x41646A757374696E672074696D656672616D65 PUSH1 0x68 SHL PUSH1 0x60 DUP3 ADD MSTORE PUSH1 0x20 DUP2 ADD SWAP2 SWAP1 SWAP2 MSTORE PUSH1 0x80 ADD SWAP1 JUMP JUMPDEST PUSH1 0x40 MLOAD DUP1 SWAP2 SUB SWAP1 LOG1 POP POP POP JUMP JUMPDEST PUSH1 0x1 SLOAD PUSH1 0x1 PUSH1 0x1 PUSH1 0xA0 SHL SUB AND CALLER EQ PUSH2 0x580 JUMPI PUSH1 0x40 MLOAD PUSH3 0x461BCD PUSH1 0xE5 SHL DUP2 MSTORE PUSH1 0x4 ADD PUSH2 0x19C SWAP1 PUSH2 0xBCB JUMP JUMPDEST PUSH1 0x40 MLOAD PUSH32 0x7541B06C3DEC9FDC83C6C723DC48E42D9B1632A4AB380F150EB91C2E6FC310B9 SWAP1 PUSH0 SWAP1 LOG1 PUSH0 DUP1 SLOAD PUSH1 0x40 DUP1 MLOAD PUSH4 0x9D8EF1E1 PUSH1 0xE0 SHL DUP2 MSTORE SWAP1 MLOAD PUSH1 0x1 PUSH1 0x1 PUSH1 0xA0 SHL SUB SWAP1 SWAP3 AND SWAP3 PUSH4 0x9D8EF1E1 SWAP3 PUSH1 0x4 DUP1 DUP5 ADD SWAP4 DUP3 SWAP1 SUB ADD DUP2 DUP4 DUP8 DUP1 EXTCODESIZE ISZERO DUP1 ISZERO PUSH2 0x5E7 JUMPI PUSH0 DUP1 REVERT JUMPDEST POP GAS CALL ISZERO DUP1 ISZERO PUSH2 0x5F9 JUMPI RETURNDATASIZE PUSH0 DUP1 RETURNDATACOPY RETURNDATASIZE PUSH0 REVERT JUMPDEST POP POP PUSH1 0x40 MLOAD PUSH32 0x9DC90CE348FED0B93DDBC45640BA9E0AB32F42E205A3C0B452FB17474B96E1C0 SWAP3 POP PUSH0 SWAP2 POP LOG1 JUMP JUMPDEST PUSH1 0x1 SLOAD PUSH1 0x1 PUSH1 0x1 PUSH1 0xA0 SHL SUB AND CALLER EQ PUSH2 0x651 JUMPI PUSH1 0x40 MLOAD PUSH3 0x461BCD PUSH1 0xE5 SHL DUP2 MSTORE PUSH1 0x4 ADD PUSH2 0x19C SWAP1 PUSH2 0xBCB JUMP JUMPDEST PUSH1 0x3 SLOAD TIMESTAMP LT ISZERO PUSH2 0x6AF JUMPI PUSH1 0x40 MLOAD PUSH3 0x461BCD PUSH1 0xE5 SHL DUP2 MSTORE PUSH1 0x20 PUSH1 0x4 DUP3 ADD MSTORE PUSH1 0x24 DUP1 DUP3 ADD MSTORE PUSH32 0x49742773206E6F742074696D6520666F7220746865206E65787420636865636B PUSH1 0x44 DUP3 ADD MSTORE PUSH4 0x81E595D PUSH1 0xE2 SHL PUSH1 0x64 DUP3 ADD MSTORE PUSH1 0x84 ADD PUSH2 0x19C JUMP JUMPDEST PUSH0 DUP1 PUSH0 SWAP1 SLOAD SWAP1 PUSH2 0x100 EXP SWAP1 DIV PUSH1 0x1 PUSH1 0x1 PUSH1 0xA0 SHL SUB AND PUSH1 0x1 PUSH1 0x1 PUSH1 0xA0 SHL SUB AND PUSH4 0x8FC3047D PUSH1 0x40 MLOAD DUP2 PUSH4 0xFFFFFFFF AND PUSH1 0xE0 SHL DUP2 MSTORE PUSH1 0x4 ADD PUSH1 0x20 PUSH1 0x40 MLOAD DUP1 DUP4 SUB DUP2 DUP7 GAS STATICCALL ISZERO DUP1 ISZERO PUSH2 0x6FF JUMPI RETURNDATASIZE PUSH0 DUP1 RETURNDATACOPY RETURNDATASIZE PUSH0 REVERT JUMPDEST POP POP POP POP PUSH1 0x40 MLOAD RETURNDATASIZE PUSH1 0x1F NOT PUSH1 0x1F DUP3 ADD AND DUP3 ADD DUP1 PUSH1 0x40 MSTORE POP DUP2 ADD SWAP1 PUSH2 0x723 SWAP2 SWAP1 PUSH2 0xC93 JUMP JUMPDEST SWAP1 POP PUSH32 0x4896F6F06B46D0EBC6BD420E59B05A5E5486F3A5A2E306E20DEF08C8F284F374 TIMESTAMP PUSH1 0x40 MLOAD PUSH2 0x756 SWAP2 DUP2 MSTORE PUSH1 0x20 ADD SWAP1 JUMP JUMPDEST PUSH1 0x40 MLOAD DUP1 SWAP2 SUB SWAP1 LOG1 PUSH2 0x41A DUP2 GT ISZERO PUSH2 0x826 JUMPI PUSH0 SLOAD PUSH1 0x40 MLOAD PUSH4 0x26C403ED PUSH1 0xE0 SHL DUP2 MSTORE PUSH1 0x1 PUSH1 0x1 PUSH1 0xA0 SHL SUB SWAP1 SWAP2 AND SWAP1 PUSH4 0x26C403ED SWAP1 PUSH2 0x7B9 SWAP1 PUSH1 0x64 SWAP1 PUSH1 0x4 ADD PUSH1 0x40 DUP1 DUP3 MSTORE PUSH1 0x4 SWAP1 DUP3 ADD MSTORE PUSH4 0x1CD95B1B PUSH1 0xE2 SHL PUSH1 0x60 DUP3 ADD MSTORE PUSH1 0x20 DUP2 ADD SWAP2 SWAP1 SWAP2 MSTORE PUSH1 0x80 ADD SWAP1 JUMP JUMPDEST PUSH0 PUSH1 0x40 MLOAD DUP1 DUP4 SUB DUP2 PUSH0 DUP8 DUP1 EXTCODESIZE ISZERO DUP1 ISZERO PUSH2 0x7D0 JUMPI PUSH0 DUP1 REVERT JUMPDEST POP GAS CALL ISZERO DUP1 ISZERO PUSH2 0x7E2 JUMPI RETURNDATASIZE PUSH0 DUP1 RETURNDATACOPY RETURNDATASIZE PUSH0 REVERT JUMPDEST POP POP PUSH1 0x40 DUP1 MLOAD DUP2 DUP2 MSTORE PUSH1 0x4 DUP2 DUP4 ADD MSTORE PUSH4 0x1CD95B1B PUSH1 0xE2 SHL PUSH1 0x60 DUP3 ADD MSTORE PUSH1 0x64 PUSH1 0x20 DUP3 ADD MSTORE SWAP1 MLOAD PUSH0 DUP1 MLOAD PUSH1 0x20 PUSH2 0xCF7 DUP4 CODECOPY DUP2 MLOAD SWAP2 MSTORE SWAP4 POP SWAP1 DUP2 SWAP1 SUB PUSH1 0x80 ADD SWAP2 POP LOG1 PUSH2 0x8E1 JUMP JUMPDEST PUSH2 0x3B6 DUP2 LT ISZERO PUSH2 0x8E1 JUMPI PUSH0 SLOAD PUSH1 0x40 DUP1 MLOAD PUSH4 0x26C403ED PUSH1 0xE0 SHL DUP2 MSTORE PUSH1 0x4 DUP2 ADD SWAP2 SWAP1 SWAP2 MSTORE PUSH1 0x3 PUSH1 0x44 DUP3 ADD MSTORE PUSH3 0x627579 PUSH1 0xE8 SHL PUSH1 0x64 DUP1 DUP4 ADD SWAP2 SWAP1 SWAP2 MSTORE PUSH1 0x24 DUP3 ADD MSTORE PUSH1 0x1 PUSH1 0x1 PUSH1 0xA0 SHL SUB SWAP1 SWAP2 AND SWAP1 PUSH4 0x26C403ED SWAP1 PUSH1 0x84 ADD PUSH0 PUSH1 0x40 MLOAD DUP1 DUP4 SUB DUP2 PUSH0 DUP8 DUP1 EXTCODESIZE ISZERO DUP1 ISZERO PUSH2 0x890 JUMPI PUSH0 DUP1 REVERT JUMPDEST POP GAS CALL ISZERO DUP1 ISZERO PUSH2 0x8A2 JUMPI RETURNDATASIZE PUSH0 DUP1 RETURNDATACOPY RETURNDATASIZE PUSH0 REVERT JUMPDEST POP POP PUSH1 0x40 DUP1 MLOAD DUP2 DUP2 MSTORE PUSH1 0x3 DUP2 DUP4 ADD MSTORE PUSH3 0x627579 PUSH1 0xE8 SHL PUSH1 0x60 DUP3 ADD MSTORE PUSH1 0x64 PUSH1 0x20 DUP3 ADD MSTORE SWAP1 MLOAD PUSH0 DUP1 MLOAD PUSH1 0x20 PUSH2 0xCF7 DUP4 CODECOPY DUP2 MLOAD SWAP2 MSTORE SWAP4 POP SWAP1 DUP2 SWAP1 SUB PUSH1 0x80 ADD SWAP2 POP LOG1 JUMPDEST PUSH1 0x2 SLOAD PUSH2 0x8EE SWAP1 TIMESTAMP PUSH2 0xCAA JUMP JUMPDEST PUSH1 0x3 SSTORE POP JUMP JUMPDEST PUSH1 0x1 SLOAD PUSH1 0x1 PUSH1 0x1 PUSH1 0xA0 SHL SUB AND CALLER EQ PUSH2 0x91E JUMPI PUSH1 0x40 MLOAD PUSH3 0x461BCD PUSH1 0xE5 SHL DUP2 MSTORE PUSH1 0x4 ADD PUSH2 0x19C SWAP1 PUSH2 0xBCB JUMP JUMPDEST PUSH0 DUP1 JUMPDEST PUSH1 0x3 DUP3 LT DUP1 ISZERO PUSH2 0x92F JUMPI POP DUP1 ISZERO JUMPDEST ISZERO PUSH2 0x9CE JUMPI PUSH0 SLOAD PUSH1 0x40 MLOAD PUSH4 0x26C403ED PUSH1 0xE0 SHL DUP2 MSTORE PUSH1 0x1 PUSH1 0x1 PUSH1 0xA0 SHL SUB SWAP1 SWAP2 AND SWAP1 PUSH4 0x26C403ED SWAP1 PUSH2 0x965 SWAP1 DUP8 SWAP1 DUP8 SWAP1 PUSH1 0x4 ADD PUSH2 0xCBD JUMP JUMPDEST PUSH0 PUSH1 0x40 MLOAD DUP1 DUP4 SUB DUP2 PUSH0 DUP8 DUP1 EXTCODESIZE ISZERO DUP1 ISZERO PUSH2 0x97C JUMPI PUSH0 DUP1 REVERT JUMPDEST POP GAS CALL SWAP3 POP POP POP DUP1 ISZERO PUSH2 0x98D JUMPI POP PUSH1 0x1 JUMPDEST PUSH2 0x99F JUMPI PUSH2 0x99A DUP3 PUSH2 0x9D4 JUMP JUMPDEST PUSH2 0x921 JUMP JUMPDEST PUSH1 0x1 SWAP1 POP PUSH0 DUP1 MLOAD PUSH1 0x20 PUSH2 0xCF7 DUP4 CODECOPY DUP2 MLOAD SWAP2 MSTORE DUP5 DUP5 PUSH1 0x40 MLOAD PUSH2 0x9C1 SWAP3 SWAP2 SWAP1 PUSH2 0xCBD JUMP JUMPDEST PUSH1 0x40 MLOAD DUP1 SWAP2 SUB SWAP1 LOG1 PUSH2 0x921 JUMP JUMPDEST POP POP POP POP JUMP JUMPDEST PUSH1 0x3 DUP2 LT PUSH2 0xA87 JUMPI PUSH0 DUP1 SLOAD PUSH1 0x40 DUP1 MLOAD PUSH4 0x17700F01 PUSH1 0xE0 SHL DUP2 MSTORE SWAP1 MLOAD PUSH1 0x1 PUSH1 0x1 PUSH1 0xA0 SHL SUB SWAP1 SWAP3 AND SWAP3 PUSH4 0x17700F01 SWAP3 PUSH1 0x4 DUP1 DUP5 ADD SWAP4 DUP3 SWAP1 SUB ADD DUP2 DUP4 DUP8 DUP1 EXTCODESIZE ISZERO DUP1 ISZERO PUSH2 0xA1B JUMPI PUSH0 DUP1 REVERT JUMPDEST POP GAS CALL ISZERO DUP1 ISZERO PUSH2 0xA2D JUMPI RETURNDATASIZE PUSH0 DUP1 RETURNDATACOPY RETURNDATASIZE PUSH0 REVERT JUMPDEST POP POP PUSH1 0x40 DUP1 MLOAD DUP2 DUP2 MSTORE PUSH1 0x1C DUP2 DUP4 ADD MSTORE PUSH32 0x53746F702064756520746F2070657273697374656E74206572726F7200000000 PUSH1 0x60 DUP3 ADD MSTORE PUSH0 PUSH1 0x20 DUP3 ADD MSTORE SWAP1 MLOAD PUSH0 DUP1 MLOAD PUSH1 0x20 PUSH2 0xCF7 DUP4 CODECOPY DUP2 MLOAD SWAP2 MSTORE SWAP4 POP SWAP1 DUP2 SWAP1 SUB PUSH1 0x80 ADD SWAP2 POP LOG1 POP JUMP JUMPDEST DUP1 PUSH2 0x322 DUP2 PUSH2 0xCDE JUMP JUMPDEST PUSH4 0x4E487B71 PUSH1 0xE0 SHL PUSH0 MSTORE PUSH1 0x41 PUSH1 0x4 MSTORE PUSH1 0x24 PUSH0 REVERT JUMPDEST PUSH0 DUP3 PUSH1 0x1F DUP4 ADD SLT PUSH2 0xAB4 JUMPI PUSH0 DUP1 REVERT JUMPDEST DUP2 CALLDATALOAD PUSH8 0xFFFFFFFFFFFFFFFF DUP1 DUP3 GT ISZERO PUSH2 0xACF JUMPI PUSH2 0xACF PUSH2 0xA91 JUMP JUMPDEST PUSH1 0x40 MLOAD PUSH1 0x1F DUP4 ADD PUSH1 0x1F NOT SWAP1 DUP2 AND PUSH1 0x3F ADD AND DUP2 ADD SWAP1 DUP3 DUP3 GT DUP2 DUP4 LT OR ISZERO PUSH2 0xAF7 JUMPI PUSH2 0xAF7 PUSH2 0xA91 JUMP JUMPDEST DUP2 PUSH1 0x40 MSTORE DUP4 DUP2 MSTORE DUP7 PUSH1 0x20 DUP6 DUP9 ADD ADD GT ISZERO PUSH2 0xB0F JUMPI PUSH0 DUP1 REVERT JUMPDEST DUP4 PUSH1 0x20 DUP8 ADD PUSH1 0x20 DUP4 ADD CALLDATACOPY PUSH0 PUSH1 0x20 DUP6 DUP4 ADD ADD MSTORE DUP1 SWAP5 POP POP POP POP POP SWAP3 SWAP2 POP POP JUMP JUMPDEST PUSH0 DUP1 PUSH1 0x40 DUP4 DUP6 SUB SLT ISZERO PUSH2 0xB3F JUMPI PUSH0 DUP1 REVERT JUMPDEST DUP3 CALLDATALOAD SWAP2 POP PUSH1 0x20 DUP4 ADD CALLDATALOAD PUSH8 0xFFFFFFFFFFFFFFFF DUP2 GT ISZERO PUSH2 0xB5C JUMPI PUSH0 DUP1 REVERT JUMPDEST PUSH2 0xB68 DUP6 DUP3 DUP7 ADD PUSH2 0xAA5 JUMP JUMPDEST SWAP2 POP POP SWAP3 POP SWAP3 SWAP1 POP JUMP JUMPDEST PUSH0 PUSH1 0x20 DUP3 DUP5 SUB SLT ISZERO PUSH2 0xB82 JUMPI PUSH0 DUP1 REVERT JUMPDEST POP CALLDATALOAD SWAP2 SWAP1 POP JUMP JUMPDEST PUSH0 DUP1 PUSH1 0x40 DUP4 DUP6 SUB SLT ISZERO PUSH2 0xB9A JUMPI PUSH0 DUP1 REVERT JUMPDEST DUP3 CALLDATALOAD PUSH8 0xFFFFFFFFFFFFFFFF DUP2 GT ISZERO PUSH2 0xBB0 JUMPI PUSH0 DUP1 REVERT JUMPDEST PUSH2 0xBBC DUP6 DUP3 DUP7 ADD PUSH2 0xAA5 JUMP JUMPDEST SWAP6 PUSH1 0x20 SWAP5 SWAP1 SWAP5 ADD CALLDATALOAD SWAP5 POP POP POP POP JUMP JUMPDEST PUSH1 0x20 DUP1 DUP3 MSTORE PUSH1 0xD SWAP1 DUP3 ADD MSTORE PUSH13 0x2737BA103A34329037BBB732B9 PUSH1 0x99 SHL PUSH1 0x40 DUP3 ADD MSTORE PUSH1 0x60 ADD SWAP1 JUMP JUMPDEST PUSH0 DUP2 MLOAD DUP1 DUP5 MSTORE PUSH0 JUMPDEST DUP2 DUP2 LT ISZERO PUSH2 0xC16 JUMPI PUSH1 0x20 DUP2 DUP6 ADD DUP2 ADD MLOAD DUP7 DUP4 ADD DUP3 ADD MSTORE ADD PUSH2 0xBFA JUMP JUMPDEST POP PUSH0 PUSH1 0x20 DUP3 DUP7 ADD ADD MSTORE PUSH1 0x20 PUSH1 0x1F NOT PUSH1 0x1F DUP4 ADD AND DUP6 ADD ADD SWAP2 POP POP SWAP3 SWAP2 POP POP JUMP JUMPDEST PUSH1 0x20 DUP2 MSTORE PUSH0 PUSH2 0xC47 PUSH1 0x20 DUP4 ADD DUP5 PUSH2 0xBF2 JUMP JUMPDEST SWAP4 SWAP3 POP POP POP JUMP JUMPDEST PUSH4 0x4E487B71 PUSH1 0xE0 SHL PUSH0 MSTORE PUSH1 0x11 PUSH1 0x4 MSTORE PUSH1 0x24 PUSH0 REVERT JUMPDEST DUP1 DUP3 MUL DUP2 ISZERO DUP3 DUP3 DIV DUP5 EQ OR PUSH2 0xC79 JUMPI PUSH2 0xC79 PUSH2 0xC4E JUMP JUMPDEST SWAP3 SWAP2 POP POP JUMP JUMPDEST PUSH4 0x4E487B71 PUSH1 0xE0 SHL PUSH0 MSTORE PUSH1 0x32 PUSH1 0x4 MSTORE PUSH1 0x24 PUSH0 REVERT JUMPDEST PUSH0 PUSH1 0x20 DUP3 DUP5 SUB SLT ISZERO PUSH2 0xCA3 JUMPI PUSH0 DUP1 REVERT JUMPDEST POP MLOAD SWAP2 SWAP1 POP JUMP JUMPDEST DUP1 DUP3 ADD DUP1 DUP3 GT ISZERO PUSH2 0xC79 JUMPI PUSH2 0xC79 PUSH2 0xC4E JUMP JUMPDEST PUSH1 0x40 DUP2 MSTORE PUSH0 PUSH2 0xCCF PUSH1 0x40 DUP4 ADD DUP6 PUSH2 0xBF2 JUMP JUMPDEST SWAP1 POP DUP3 PUSH1 0x20 DUP4 ADD MSTORE SWAP4 SWAP3 POP POP POP JUMP JUMPDEST PUSH0 PUSH1 0x1 DUP3 ADD PUSH2 0xCEF JUMPI PUSH2 0xCEF PUSH2 0xC4E JUMP JUMPDEST POP PUSH1 0x1 ADD SWAP1 JUMP INVALID JUMPI EXTCODEHASH 0x22 0xC3 SLT CODESIZE 0x2D DIV PUSH2 0x59D8 CALLVALUE 0xAA 0xE SWAP16 PUSH29 0x23B7BA1BA8C9FF20B839B47844686E88A264697066735822122060E631 0xA8 PUSH17 0x370823E7287B2615831E7AA9884C024DC9 0xD4 TIMESTAMP DUP9 LOG0 0xBC TIMESTAMP 0xAD PUSH15 0xF4864736F6C634300081400330000 "
		},
		"gasEstimates": {
			"creation": {
				"codeDepositCost": "680800",
				"executionCost": "infinite",
				"totalCost": "infinite"
			},
			"external": {
				"Consolidate()": "infinite",
				"checkInterval()": "2372",
				"initiateTradeWithHandling(string,uint256)": "infinite",
				"kill()": "infinite",
				"logEvent(uint256,string)": "infinite",
				"mainBot()": "2423",
				"nextCheckTime()": "2284",
				"owner()": "2380",
				"periodicCheck()": "infinite",
				"setTradingTimeframe(uint256)": "infinite",
				"withdrawInGwei(uint256)": "infinite"
			},
			"internal": {
				"handleTradeError(uint256)": "infinite"
			}
		},
		"methodIdentifiers": {
			"Consolidate()": "8c44c530",
			"checkInterval()": "838c29b6",
			"initiateTradeWithHandling(string,uint256)": "efa274ef",
			"kill()": "41c0e1b5",
			"logEvent(uint256,string)": "4359b7ef",
			"mainBot()": "e529930a",
			"nextCheckTime()": "36dff6b6",
			"owner()": "8da5cb5b",
			"periodicCheck()": "c98706c3",
			"setTradingTimeframe(uint256)": "88ac3ea1",
			"withdrawInGwei(uint256)": "457f3cb0"
		}
	},
	"abi": [
		{
			"inputs": [
				{
					"internalType": "address payable",
					"name": "mainBotAddress",
					"type": "address"
				},
				{
					"internalType": "uint256",
					"name": "_checkInterval",
					"type": "uint256"
				}
			],
			"stateMutability": "nonpayable",
			"type": "constructor"
		},
		{
			"anonymous": false,
			"inputs": [],
			"name": "ConsolidationCompleted",
			"type": "event"
		},
		{
			"anonymous": false,
			"inputs": [],
			"name": "ConsolidationStarted",
			"type": "event"
		},
		{
			"anonymous": false,
			"inputs": [
				{
					"indexed": false,
					"internalType": "string",
					"name": "activity",
					"type": "string"
				}
			],
			"name": "CurrentActivity",
			"type": "event"
		},
		{
			"anonymous": false,
			"inputs": [
				{
					"indexed": false,
					"internalType": "uint256",
					"name": "time",
					"type": "uint256"
				}
			],
			"name": "LogControllerCheck",
			"type": "event"
		},
		{
			"anonymous": false,
			"inputs": [
				{
					"indexed": false,
					"internalType": "string",
					"name": "tradeType",
					"type": "string"
				},
				{
					"indexed": false,
					"internalType": "uint256",
					"name": "amount",
					"type": "uint256"
				}
			],
			"name": "LogControllerTrade",
			"type": "event"
		},
		{
			"inputs": [],
			"name": "Consolidate",
			"outputs": [],
			"stateMutability": "nonpayable",
			"type": "function"
		},
		{
			"inputs": [],
			"name": "checkInterval",
			"outputs": [
				{
					"internalType": "uint256",
					"name": "",
					"type": "uint256"
				}
			],
			"stateMutability": "view",
			"type": "function"
		},
		{
			"inputs": [
				{
					"internalType": "string",
					"name": "tradeType",
					"type": "string"
				},
				{
					"internalType": "uint256",
					"name": "amount",
					"type": "uint256"
				}
			],
			"name": "initiateTradeWithHandling",
			"outputs": [],
			"stateMutability": "nonpayable",
			"type": "function"
		},
		{
			"inputs": [],
			"name": "kill",
			"outputs": [],
			"stateMutability": "nonpayable",
			"type": "function"
		},
		{
			"inputs": [
				{
					"internalType": "uint256",
					"name": "timestamp",
					"type": "uint256"
				},
				{
					"internalType": "string",
					"name": "activity",
					"type": "string"
				}
			],
			"name": "logEvent",
			"outputs": [],
			"stateMutability": "nonpayable",
			"type": "function"
		},
		{
			"inputs": [],
			"name": "mainBot",
			"outputs": [
				{
					"internalType": "contract MainBot",
					"name": "",
					"type": "address"
				}
			],
			"stateMutability": "view",
			"type": "function"
		},
		{
			"inputs": [],
			"name": "nextCheckTime",
			"outputs": [
				{
					"internalType": "uint256",
					"name": "",
					"type": "uint256"
				}
			],
			"stateMutability": "view",
			"type": "function"
		},
		{
			"inputs": [],
			"name": "owner",
			"outputs": [
				{
					"internalType": "address",
					"name": "",
					"type": "address"
				}
			],
			"stateMutability": "view",
			"type": "function"
		},
		{
			"inputs": [],
			"name": "periodicCheck",
			"outputs": [],
			"stateMutability": "nonpayable",
			"type": "function"
		},
		{
			"inputs": [
				{
					"internalType": "uint256",
					"name": "timeframeIndex",
					"type": "uint256"
				}
			],
			"name": "setTradingTimeframe",
			"outputs": [],
			"stateMutability": "nonpayable",
			"type": "function"
		},
		{
			"inputs": [
				{
					"internalType": "uint256",
					"name": "amountInGwei",
					"type": "uint256"
				}
			],
			"name": "withdrawInGwei",
			"outputs": [],
			"stateMutability": "nonpayable",
			"type": "function"
		}
	]
}