{
	"data": {
		"bytecode": {
			"linkReferences": {},
			"object": "6003600655600a60075560c0604052600c60809081526b496e697469616c697a696e6760a01b60a052600990620000379082620001fe565b5034801562000044575f80fd5b5060405162001365380380620013658339810160408190526200006791620002e2565b5f8054336001600160a01b031991821617909155600a805482166001600160a01b038b811691909117909155600b805483168a8316179055600c80548316898316179055600d80548316888316908117909155600e80548416888416179055600f805484168784161790556010805484168684161790556011805490931691841691909117909155604051680517569636b537761760bc1b815260129060090190815260405190819003602001902080546001600160a01b03929092166001600160a01b031990921691909117905550505f805460ff60a01b191690555050606e6004555050605560055550504260085562000385565b634e487b7160e01b5f52604160045260245ffd5b600181811c908216806200018757607f821691505b602082108103620001a657634e487b7160e01b5f52602260045260245ffd5b50919050565b601f821115620001f9575f81815260208120601f850160051c81016020861015620001d45750805b601f850160051c820191505b81811015620001f557828155600101620001e0565b5050505b505050565b81516001600160401b038111156200021a576200021a6200015e565b62000232816200022b845462000172565b84620001ac565b602080601f83116001811462000268575f8415620002505750858301515b5f19600386901b1c1916600185901b178555620001f5565b5f85815260208120601f198616915b82811015620002985788860151825594840194600190910190840162000277565b5085821015620002b657878501515f19600388901b60f8161c191681555b5050505050600190811b01905550565b80516001600160a01b0381168114620002dd575f80fd5b919050565b5f805f805f805f80610100898b031215620002fb575f80fd5b6200030689620002c6565b97506200031660208a01620002c6565b96506200032660408a01620002c6565b95506200033660608a01620002c6565b94506200034660808a01620002c6565b93506200035660a08a01620002c6565b92506200036660c08a01620002c6565b91506200037660e08a01620002c6565b90509295985092959890939650565b610fd280620003935f395ff3fe6080604052600436106101bd575f3560e01c8063869665e9116100f2578063b3ce56a211610092578063e0abca0b11610062578063e0abca0b1461052d578063e189eb421461054c578063e5047b301461056b578063f974821a1461058a575f80fd5b8063b3ce56a2146104cf578063b6658d07146104e4578063c0fc247f14610503578063e037f88914610518575f80fd5b806392eefe9b116100cd57806392eefe9b146104685780639d8ef1e114610487578063a30fb9051461049b578063a98ad46c146104b0575f80fd5b8063869665e9146104175780638da5cb5b146104365780638fc3047d14610454575f80fd5b806341c0e1b51161015d5780635e7ffa67116101385780635e7ffa671461038257806364aabb9e146103c25780636d546cdd146103d7578063735de9f7146103f8575f80fd5b806341c0e1b514610330578063457f3cb0146103445780634ada218b14610363575f80fd5b80631bf41362116101985780631bf41362146102ae578063238f9b7a146102c357806326c403ed146102e25780633fb47a3b14610301575f80fd5b806311eac855146102395780631458d9d81461027557806317700f0114610298575f80fd5b36610235573460015f8282546101d39190610b66565b90915550606490506101e6346046610b79565b6101f09190610b90565b60025f8282546102009190610b66565b909155506064905061021334601e610b79565b61021d9190610b90565b60035f82825461022d9190610b66565b925050819055005b5f80fd5b348015610244575f80fd5b50600c54610258906001600160a01b031681565b6040516001600160a01b0390911681526020015b60405180910390f35b348015610280575f80fd5b5061028a60025481565b60405190815260200161026c565b3480156102a3575f80fd5b506102ac61059f565b005b3480156102b9575f80fd5b5061028a60085481565b3480156102ce575f80fd5b50601154610258906001600160a01b031681565b3480156102ed575f80fd5b506102ac6102fc366004610c4c565b6105df565b34801561030c575f80fd5b5061032061031b366004610ca2565b610651565b604051901515815260200161026c565b34801561033b575f80fd5b506102ac61076c565b34801561034f575f80fd5b506102ac61035e366004610cd0565b6107c1565b34801561036e575f80fd5b505f5461032090600160a01b900460ff1681565b34801561038d575f80fd5b5061025861039c366004610ce7565b80516020818301810180516012825292820191909301209152546001600160a01b031681565b3480156103cd575f80fd5b5061028a60035481565b3480156103e2575f80fd5b506103eb61087d565b60405161026c9190610d5c565b348015610403575f80fd5b50600f54610258906001600160a01b031681565b348015610422575f80fd5b506102ac610431366004610cd0565b610909565b348015610441575f80fd5b505f54610258906001600160a01b031681565b34801561045f575f80fd5b5061028a6109a9565b348015610473575f80fd5b506102ac610482366004610d75565b6109b9565b348015610492575f80fd5b506102ac610a03565b3480156104a6575f80fd5b5061028a60065481565b3480156104bb575f80fd5b50600b54610258906001600160a01b031681565b3480156104da575f80fd5b5061028a60075481565b3480156104ef575f80fd5b50600a54610258906001600160a01b031681565b34801561050e575f80fd5b5061028a60055481565b348015610523575f80fd5b5061028a60015481565b348015610538575f80fd5b50600e54610258906001600160a01b031681565b348015610557575f80fd5b50600d54610258906001600160a01b031681565b348015610576575f80fd5b50601054610258906001600160a01b031681565b348015610595575f80fd5b5061028a60045481565b5f546001600160a01b031633146105d15760405162461bcd60e51b81526004016105c890610d90565b60405180910390fd5b5f805460ff60a01b19169055565b5f546001600160a01b031633146106085760405162461bcd60e51b81526004016105c890610d90565b337f030fdcd4f0c28c5dbcbc3f59aa8e2260c7f58ac45be2a2dca652999af89c33e083835f610635610a9e565b6040516106459493929190610db7565b60405180910390a25050565b5f808290505f816001600160a01b0316633850c7bd6040518163ffffffff1660e01b815260040160e060405180830381865afa158015610693573d5f803e3d5ffd5b505050506040513d601f19601f820116820180604052508101906106b79190610dfb565b50505050505090505f826001600160a01b0316631a6865026040518163ffffffff1660e01b8152600401602060405180830381865afa1580156106fc573d5f803e3d5ffd5b505050506040513d601f19601f820116820180604052508101906107209190610e97565b6001600160801b031690505f610737878484610b2b565b90505f6064610747836001610b79565b6107519190610b90565b905061075d8189610ebd565b90911015979650505050505050565b5f546001600160a01b031633146107955760405162461bcd60e51b81526004016105c890610d90565b60405133904780156108fc02915f818181858888f193505050501580156107be573d5f803e3d5ffd5b50565b5f546001600160a01b031633146107ea5760405162461bcd60e51b81526004016105c890610d90565b5f6107f982633b9aca00610b79565b9050804710156108425760405162461bcd60e51b8152602060048201526014602482015273496e73756666696369656e742062616c616e636560601b60448201526064016105c8565b5f80546040516001600160a01b039091169183156108fc02918491818181858888f19350505050158015610878573d5f803e3d5ffd5b505050565b6009805461088a90610ed0565b80601f01602080910402602001604051908101604052809291908181526020018280546108b690610ed0565b80156109015780601f106108d857610100808354040283529160200191610901565b820191905f5260205f20905b8154815290600101906020018083116108e457829003601f168201915b505050505081565b5f546001600160a01b031633146109325760405162461bcd60e51b81526004016105c890610d90565b337f030fdcd4f0c28c5dbcbc3f59aa8e2260c7f58ac45be2a2dca652999af89c33e0825f61095e610a9e565b60408051608080825260129082015271151a5b59599c985b594818591a9d5cdd195960721b60a08201526020810194909452830191909152606082015260c00160405180910390a250565b5f806109b3610a9e565b92915050565b5f546001600160a01b031633146109e25760405162461bcd60e51b81526004016105c890610d90565b5f80546001600160a01b0319166001600160a01b0392909216919091179055565b5f546001600160a01b03163314610a2c5760405162461bcd60e51b81526004016105c890610d90565b337f030fdcd4f0c28c5dbcbc3f59aa8e2260c7f58ac45be2a2dca652999af89c33e05f80610a58610a9e565b604080516080808252600e908201526d18dbdb9d995c9d081d1bc81413d360921b60a08201526020810194909452830191909152606082015260c00160405180910390a2565b600e5460408051633fabe5a360e21b815290515f926001600160a01b0316918391839163feaf968c9160048083019260a09291908290030181865afa158015610ae9573d5f803e3d5ffd5b505050506040513d601f19601f82011682018060405250810190610b0d9190610f21565b505050915050806402540be400610b249190610f6d565b9250505090565b5f81610b406001600160a01b03851686610b79565b610b4a9190610b90565b949350505050565b634e487b7160e01b5f52601160045260245ffd5b808201808211156109b3576109b3610b52565b80820281158282048414176109b3576109b3610b52565b5f82610baa57634e487b7160e01b5f52601260045260245ffd5b500490565b634e487b7160e01b5f52604160045260245ffd5b5f82601f830112610bd2575f80fd5b813567ffffffffffffffff80821115610bed57610bed610baf565b604051601f8301601f19908116603f01168101908282118183101715610c1557610c15610baf565b81604052838152866020858801011115610c2d575f80fd5b836020870160208301375f602085830101528094505050505092915050565b5f8060408385031215610c5d575f80fd5b823567ffffffffffffffff811115610c73575f80fd5b610c7f85828601610bc3565b95602094909401359450505050565b6001600160a01b03811681146107be575f80fd5b5f8060408385031215610cb3575f80fd5b823591506020830135610cc581610c8e565b809150509250929050565b5f60208284031215610ce0575f80fd5b5035919050565b5f60208284031215610cf7575f80fd5b813567ffffffffffffffff811115610d0d575f80fd5b610b4a84828501610bc3565b5f81518084525f5b81811015610d3d57602081850181015186830182015201610d21565b505f602082860101526020601f19601f83011685010191505092915050565b602081525f610d6e6020830184610d19565b9392505050565b5f60208284031215610d85575f80fd5b8135610d6e81610c8e565b6020808252600d908201526c2737ba103a34329037bbb732b960991b604082015260600190565b608081525f610dc96080830187610d19565b6020830195909552506040810192909252606090910152919050565b805161ffff81168114610df6575f80fd5b919050565b5f805f805f805f60e0888a031215610e11575f80fd5b8751610e1c81610c8e565b8097505060208801518060020b8114610e33575f80fd5b9550610e4160408901610de5565b9450610e4f60608901610de5565b9350610e5d60808901610de5565b925060a088015160ff81168114610e72575f80fd5b60c08901519092508015158114610e87575f80fd5b8091505092959891949750929550565b5f60208284031215610ea7575f80fd5b81516001600160801b0381168114610d6e575f80fd5b818103818111156109b3576109b3610b52565b600181811c90821680610ee457607f821691505b602082108103610f0257634e487b7160e01b5f52602260045260245ffd5b50919050565b805169ffffffffffffffffffff81168114610df6575f80fd5b5f805f805f60a08688031215610f35575f80fd5b610f3e86610f08565b9450602086015193506040860151925060608601519150610f6160808701610f08565b90509295509295909350565b8082025f8212600160ff1b84141615610f8857610f88610b52565b81810583148215176109b3576109b3610b5256fea264697066735822122024c904bef833b67fb7e3222024adc23707813c21cd9bb6542bcd916274d4b3fd64736f6c63430008140033",
			"opcodes": "PUSH1 0x3 PUSH1 0x6 SSTORE PUSH1 0xA PUSH1 0x7 SSTORE PUSH1 0xC0 PUSH1 0x40 MSTORE PUSH1 0xC PUSH1 0x80 SWAP1 DUP2 MSTORE PUSH12 0x496E697469616C697A696E67 PUSH1 0xA0 SHL PUSH1 0xA0 MSTORE PUSH1 0x9 SWAP1 PUSH3 0x37 SWAP1 DUP3 PUSH3 0x1FE JUMP JUMPDEST POP CALLVALUE DUP1 ISZERO PUSH3 0x44 JUMPI PUSH0 DUP1 REVERT JUMPDEST POP PUSH1 0x40 MLOAD PUSH3 0x1365 CODESIZE SUB DUP1 PUSH3 0x1365 DUP4 CODECOPY DUP2 ADD PUSH1 0x40 DUP2 SWAP1 MSTORE PUSH3 0x67 SWAP2 PUSH3 0x2E2 JUMP JUMPDEST PUSH0 DUP1 SLOAD CALLER PUSH1 0x1 PUSH1 0x1 PUSH1 0xA0 SHL SUB NOT SWAP2 DUP3 AND OR SWAP1 SWAP2 SSTORE PUSH1 0xA DUP1 SLOAD DUP3 AND PUSH1 0x1 PUSH1 0x1 PUSH1 0xA0 SHL SUB DUP12 DUP2 AND SWAP2 SWAP1 SWAP2 OR SWAP1 SWAP2 SSTORE PUSH1 0xB DUP1 SLOAD DUP4 AND DUP11 DUP4 AND OR SWAP1 SSTORE PUSH1 0xC DUP1 SLOAD DUP4 AND DUP10 DUP4 AND OR SWAP1 SSTORE PUSH1 0xD DUP1 SLOAD DUP4 AND DUP9 DUP4 AND SWAP1 DUP2 OR SWAP1 SWAP2 SSTORE PUSH1 0xE DUP1 SLOAD DUP5 AND DUP9 DUP5 AND OR SWAP1 SSTORE PUSH1 0xF DUP1 SLOAD DUP5 AND DUP8 DUP5 AND OR SWAP1 SSTORE PUSH1 0x10 DUP1 SLOAD DUP5 AND DUP7 DUP5 AND OR SWAP1 SSTORE PUSH1 0x11 DUP1 SLOAD SWAP1 SWAP4 AND SWAP2 DUP5 AND SWAP2 SWAP1 SWAP2 OR SWAP1 SWAP2 SSTORE PUSH1 0x40 MLOAD PUSH9 0x517569636B5377617 PUSH1 0xBC SHL DUP2 MSTORE PUSH1 0x12 SWAP1 PUSH1 0x9 ADD SWAP1 DUP2 MSTORE PUSH1 0x40 MLOAD SWAP1 DUP2 SWAP1 SUB PUSH1 0x20 ADD SWAP1 KECCAK256 DUP1 SLOAD PUSH1 0x1 PUSH1 0x1 PUSH1 0xA0 SHL SUB SWAP3 SWAP1 SWAP3 AND PUSH1 0x1 PUSH1 0x1 PUSH1 0xA0 SHL SUB NOT SWAP1 SWAP3 AND SWAP2 SWAP1 SWAP2 OR SWAP1 SSTORE POP POP PUSH0 DUP1 SLOAD PUSH1 0xFF PUSH1 0xA0 SHL NOT AND SWAP1 SSTORE POP POP PUSH1 0x6E PUSH1 0x4 SSTORE POP POP PUSH1 0x55 PUSH1 0x5 SSTORE POP POP TIMESTAMP PUSH1 0x8 SSTORE PUSH3 0x385 JUMP JUMPDEST PUSH4 0x4E487B71 PUSH1 0xE0 SHL PUSH0 MSTORE PUSH1 0x41 PUSH1 0x4 MSTORE PUSH1 0x24 PUSH0 REVERT JUMPDEST PUSH1 0x1 DUP2 DUP2 SHR SWAP1 DUP3 AND DUP1 PUSH3 0x187 JUMPI PUSH1 0x7F DUP3 AND SWAP2 POP JUMPDEST PUSH1 0x20 DUP3 LT DUP2 SUB PUSH3 0x1A6 JUMPI PUSH4 0x4E487B71 PUSH1 0xE0 SHL PUSH0 MSTORE PUSH1 0x22 PUSH1 0x4 MSTORE PUSH1 0x24 PUSH0 REVERT JUMPDEST POP SWAP2 SWAP1 POP JUMP JUMPDEST PUSH1 0x1F DUP3 GT ISZERO PUSH3 0x1F9 JUMPI PUSH0 DUP2 DUP2 MSTORE PUSH1 0x20 DUP2 KECCAK256 PUSH1 0x1F DUP6 ADD PUSH1 0x5 SHR DUP2 ADD PUSH1 0x20 DUP7 LT ISZERO PUSH3 0x1D4 JUMPI POP DUP1 JUMPDEST PUSH1 0x1F DUP6 ADD PUSH1 0x5 SHR DUP3 ADD SWAP2 POP JUMPDEST DUP2 DUP2 LT ISZERO PUSH3 0x1F5 JUMPI DUP3 DUP2 SSTORE PUSH1 0x1 ADD PUSH3 0x1E0 JUMP JUMPDEST POP POP POP JUMPDEST POP POP POP JUMP JUMPDEST DUP2 MLOAD PUSH1 0x1 PUSH1 0x1 PUSH1 0x40 SHL SUB DUP2 GT ISZERO PUSH3 0x21A JUMPI PUSH3 0x21A PUSH3 0x15E JUMP JUMPDEST PUSH3 0x232 DUP2 PUSH3 0x22B DUP5 SLOAD PUSH3 0x172 JUMP JUMPDEST DUP5 PUSH3 0x1AC JUMP JUMPDEST PUSH1 0x20 DUP1 PUSH1 0x1F DUP4 GT PUSH1 0x1 DUP2 EQ PUSH3 0x268 JUMPI PUSH0 DUP5 ISZERO PUSH3 0x250 JUMPI POP DUP6 DUP4 ADD MLOAD JUMPDEST PUSH0 NOT PUSH1 0x3 DUP7 SWAP1 SHL SHR NOT AND PUSH1 0x1 DUP6 SWAP1 SHL OR DUP6 SSTORE PUSH3 0x1F5 JUMP JUMPDEST PUSH0 DUP6 DUP2 MSTORE PUSH1 0x20 DUP2 KECCAK256 PUSH1 0x1F NOT DUP7 AND SWAP2 JUMPDEST DUP3 DUP2 LT ISZERO PUSH3 0x298 JUMPI DUP9 DUP7 ADD MLOAD DUP3 SSTORE SWAP5 DUP5 ADD SWAP5 PUSH1 0x1 SWAP1 SWAP2 ADD SWAP1 DUP5 ADD PUSH3 0x277 JUMP JUMPDEST POP DUP6 DUP3 LT ISZERO PUSH3 0x2B6 JUMPI DUP8 DUP6 ADD MLOAD PUSH0 NOT PUSH1 0x3 DUP9 SWAP1 SHL PUSH1 0xF8 AND SHR NOT AND DUP2 SSTORE JUMPDEST POP POP POP POP POP PUSH1 0x1 SWAP1 DUP2 SHL ADD SWAP1 SSTORE POP JUMP JUMPDEST DUP1 MLOAD PUSH1 0x1 PUSH1 0x1 PUSH1 0xA0 SHL SUB DUP2 AND DUP2 EQ PUSH3 0x2DD JUMPI PUSH0 DUP1 REVERT JUMPDEST SWAP2 SWAP1 POP JUMP JUMPDEST PUSH0 DUP1 PUSH0 DUP1 PUSH0 DUP1 PUSH0 DUP1 PUSH2 0x100 DUP10 DUP12 SUB SLT ISZERO PUSH3 0x2FB JUMPI PUSH0 DUP1 REVERT JUMPDEST PUSH3 0x306 DUP10 PUSH3 0x2C6 JUMP JUMPDEST SWAP8 POP PUSH3 0x316 PUSH1 0x20 DUP11 ADD PUSH3 0x2C6 JUMP JUMPDEST SWAP7 POP PUSH3 0x326 PUSH1 0x40 DUP11 ADD PUSH3 0x2C6 JUMP JUMPDEST SWAP6 POP PUSH3 0x336 PUSH1 0x60 DUP11 ADD PUSH3 0x2C6 JUMP JUMPDEST SWAP5 POP PUSH3 0x346 PUSH1 0x80 DUP11 ADD PUSH3 0x2C6 JUMP JUMPDEST SWAP4 POP PUSH3 0x356 PUSH1 0xA0 DUP11 ADD PUSH3 0x2C6 JUMP JUMPDEST SWAP3 POP PUSH3 0x366 PUSH1 0xC0 DUP11 ADD PUSH3 0x2C6 JUMP JUMPDEST SWAP2 POP PUSH3 0x376 PUSH1 0xE0 DUP11 ADD PUSH3 0x2C6 JUMP JUMPDEST SWAP1 POP SWAP3 SWAP6 SWAP9 POP SWAP3 SWAP6 SWAP9 SWAP1 SWAP4 SWAP7 POP JUMP JUMPDEST PUSH2 0xFD2 DUP1 PUSH3 0x393 PUSH0 CODECOPY PUSH0 RETURN INVALID PUSH1 0x80 PUSH1 0x40 MSTORE PUSH1 0x4 CALLDATASIZE LT PUSH2 0x1BD JUMPI PUSH0 CALLDATALOAD PUSH1 0xE0 SHR DUP1 PUSH4 0x869665E9 GT PUSH2 0xF2 JUMPI DUP1 PUSH4 0xB3CE56A2 GT PUSH2 0x92 JUMPI DUP1 PUSH4 0xE0ABCA0B GT PUSH2 0x62 JUMPI DUP1 PUSH4 0xE0ABCA0B EQ PUSH2 0x52D JUMPI DUP1 PUSH4 0xE189EB42 EQ PUSH2 0x54C JUMPI DUP1 PUSH4 0xE5047B30 EQ PUSH2 0x56B JUMPI DUP1 PUSH4 0xF974821A EQ PUSH2 0x58A JUMPI PUSH0 DUP1 REVERT JUMPDEST DUP1 PUSH4 0xB3CE56A2 EQ PUSH2 0x4CF JUMPI DUP1 PUSH4 0xB6658D07 EQ PUSH2 0x4E4 JUMPI DUP1 PUSH4 0xC0FC247F EQ PUSH2 0x503 JUMPI DUP1 PUSH4 0xE037F889 EQ PUSH2 0x518 JUMPI PUSH0 DUP1 REVERT JUMPDEST DUP1 PUSH4 0x92EEFE9B GT PUSH2 0xCD JUMPI DUP1 PUSH4 0x92EEFE9B EQ PUSH2 0x468 JUMPI DUP1 PUSH4 0x9D8EF1E1 EQ PUSH2 0x487 JUMPI DUP1 PUSH4 0xA30FB905 EQ PUSH2 0x49B JUMPI DUP1 PUSH4 0xA98AD46C EQ PUSH2 0x4B0 JUMPI PUSH0 DUP1 REVERT JUMPDEST DUP1 PUSH4 0x869665E9 EQ PUSH2 0x417 JUMPI DUP1 PUSH4 0x8DA5CB5B EQ PUSH2 0x436 JUMPI DUP1 PUSH4 0x8FC3047D EQ PUSH2 0x454 JUMPI PUSH0 DUP1 REVERT JUMPDEST DUP1 PUSH4 0x41C0E1B5 GT PUSH2 0x15D JUMPI DUP1 PUSH4 0x5E7FFA67 GT PUSH2 0x138 JUMPI DUP1 PUSH4 0x5E7FFA67 EQ PUSH2 0x382 JUMPI DUP1 PUSH4 0x64AABB9E EQ PUSH2 0x3C2 JUMPI DUP1 PUSH4 0x6D546CDD EQ PUSH2 0x3D7 JUMPI DUP1 PUSH4 0x735DE9F7 EQ PUSH2 0x3F8 JUMPI PUSH0 DUP1 REVERT JUMPDEST DUP1 PUSH4 0x41C0E1B5 EQ PUSH2 0x330 JUMPI DUP1 PUSH4 0x457F3CB0 EQ PUSH2 0x344 JUMPI DUP1 PUSH4 0x4ADA218B EQ PUSH2 0x363 JUMPI PUSH0 DUP1 REVERT JUMPDEST DUP1 PUSH4 0x1BF41362 GT PUSH2 0x198 JUMPI DUP1 PUSH4 0x1BF41362 EQ PUSH2 0x2AE JUMPI DUP1 PUSH4 0x238F9B7A EQ PUSH2 0x2C3 JUMPI DUP1 PUSH4 0x26C403ED EQ PUSH2 0x2E2 JUMPI DUP1 PUSH4 0x3FB47A3B EQ PUSH2 0x301 JUMPI PUSH0 DUP1 REVERT JUMPDEST DUP1 PUSH4 0x11EAC855 EQ PUSH2 0x239 JUMPI DUP1 PUSH4 0x1458D9D8 EQ PUSH2 0x275 JUMPI DUP1 PUSH4 0x17700F01 EQ PUSH2 0x298 JUMPI PUSH0 DUP1 REVERT JUMPDEST CALLDATASIZE PUSH2 0x235 JUMPI CALLVALUE PUSH1 0x1 PUSH0 DUP3 DUP3 SLOAD PUSH2 0x1D3 SWAP2 SWAP1 PUSH2 0xB66 JUMP JUMPDEST SWAP1 SWAP2 SSTORE POP PUSH1 0x64 SWAP1 POP PUSH2 0x1E6 CALLVALUE PUSH1 0x46 PUSH2 0xB79 JUMP JUMPDEST PUSH2 0x1F0 SWAP2 SWAP1 PUSH2 0xB90 JUMP JUMPDEST PUSH1 0x2 PUSH0 DUP3 DUP3 SLOAD PUSH2 0x200 SWAP2 SWAP1 PUSH2 0xB66 JUMP JUMPDEST SWAP1 SWAP2 SSTORE POP PUSH1 0x64 SWAP1 POP PUSH2 0x213 CALLVALUE PUSH1 0x1E PUSH2 0xB79 JUMP JUMPDEST PUSH2 0x21D SWAP2 SWAP1 PUSH2 0xB90 JUMP JUMPDEST PUSH1 0x3 PUSH0 DUP3 DUP3 SLOAD PUSH2 0x22D SWAP2 SWAP1 PUSH2 0xB66 JUMP JUMPDEST SWAP3 POP POP DUP2 SWAP1 SSTORE STOP JUMPDEST PUSH0 DUP1 REVERT JUMPDEST CALLVALUE DUP1 ISZERO PUSH2 0x244 JUMPI PUSH0 DUP1 REVERT JUMPDEST POP PUSH1 0xC SLOAD PUSH2 0x258 SWAP1 PUSH1 0x1 PUSH1 0x1 PUSH1 0xA0 SHL SUB AND DUP2 JUMP JUMPDEST PUSH1 0x40 MLOAD PUSH1 0x1 PUSH1 0x1 PUSH1 0xA0 SHL SUB SWAP1 SWAP2 AND DUP2 MSTORE PUSH1 0x20 ADD JUMPDEST PUSH1 0x40 MLOAD DUP1 SWAP2 SUB SWAP1 RETURN JUMPDEST CALLVALUE DUP1 ISZERO PUSH2 0x280 JUMPI PUSH0 DUP1 REVERT JUMPDEST POP PUSH2 0x28A PUSH1 0x2 SLOAD DUP2 JUMP JUMPDEST PUSH1 0x40 MLOAD SWAP1 DUP2 MSTORE PUSH1 0x20 ADD PUSH2 0x26C JUMP JUMPDEST CALLVALUE DUP1 ISZERO PUSH2 0x2A3 JUMPI PUSH0 DUP1 REVERT JUMPDEST POP PUSH2 0x2AC PUSH2 0x59F JUMP JUMPDEST STOP JUMPDEST CALLVALUE DUP1 ISZERO PUSH2 0x2B9 JUMPI PUSH0 DUP1 REVERT JUMPDEST POP PUSH2 0x28A PUSH1 0x8 SLOAD DUP2 JUMP JUMPDEST CALLVALUE DUP1 ISZERO PUSH2 0x2CE JUMPI PUSH0 DUP1 REVERT JUMPDEST POP PUSH1 0x11 SLOAD PUSH2 0x258 SWAP1 PUSH1 0x1 PUSH1 0x1 PUSH1 0xA0 SHL SUB AND DUP2 JUMP JUMPDEST CALLVALUE DUP1 ISZERO PUSH2 0x2ED JUMPI PUSH0 DUP1 REVERT JUMPDEST POP PUSH2 0x2AC PUSH2 0x2FC CALLDATASIZE PUSH1 0x4 PUSH2 0xC4C JUMP JUMPDEST PUSH2 0x5DF JUMP JUMPDEST CALLVALUE DUP1 ISZERO PUSH2 0x30C JUMPI PUSH0 DUP1 REVERT JUMPDEST POP PUSH2 0x320 PUSH2 0x31B CALLDATASIZE PUSH1 0x4 PUSH2 0xCA2 JUMP JUMPDEST PUSH2 0x651 JUMP JUMPDEST PUSH1 0x40 MLOAD SWAP1 ISZERO ISZERO DUP2 MSTORE PUSH1 0x20 ADD PUSH2 0x26C JUMP JUMPDEST CALLVALUE DUP1 ISZERO PUSH2 0x33B JUMPI PUSH0 DUP1 REVERT JUMPDEST POP PUSH2 0x2AC PUSH2 0x76C JUMP JUMPDEST CALLVALUE DUP1 ISZERO PUSH2 0x34F JUMPI PUSH0 DUP1 REVERT JUMPDEST POP PUSH2 0x2AC PUSH2 0x35E CALLDATASIZE PUSH1 0x4 PUSH2 0xCD0 JUMP JUMPDEST PUSH2 0x7C1 JUMP JUMPDEST CALLVALUE DUP1 ISZERO PUSH2 0x36E JUMPI PUSH0 DUP1 REVERT JUMPDEST POP PUSH0 SLOAD PUSH2 0x320 SWAP1 PUSH1 0x1 PUSH1 0xA0 SHL SWAP1 DIV PUSH1 0xFF AND DUP2 JUMP JUMPDEST CALLVALUE DUP1 ISZERO PUSH2 0x38D JUMPI PUSH0 DUP1 REVERT JUMPDEST POP PUSH2 0x258 PUSH2 0x39C CALLDATASIZE PUSH1 0x4 PUSH2 0xCE7 JUMP JUMPDEST DUP1 MLOAD PUSH1 0x20 DUP2 DUP4 ADD DUP2 ADD DUP1 MLOAD PUSH1 0x12 DUP3 MSTORE SWAP3 DUP3 ADD SWAP2 SWAP1 SWAP4 ADD KECCAK256 SWAP2 MSTORE SLOAD PUSH1 0x1 PUSH1 0x1 PUSH1 0xA0 SHL SUB AND DUP2 JUMP JUMPDEST CALLVALUE DUP1 ISZERO PUSH2 0x3CD JUMPI PUSH0 DUP1 REVERT JUMPDEST POP PUSH2 0x28A PUSH1 0x3 SLOAD DUP2 JUMP JUMPDEST CALLVALUE DUP1 ISZERO PUSH2 0x3E2 JUMPI PUSH0 DUP1 REVERT JUMPDEST POP PUSH2 0x3EB PUSH2 0x87D JUMP JUMPDEST PUSH1 0x40 MLOAD PUSH2 0x26C SWAP2 SWAP1 PUSH2 0xD5C JUMP JUMPDEST CALLVALUE DUP1 ISZERO PUSH2 0x403 JUMPI PUSH0 DUP1 REVERT JUMPDEST POP PUSH1 0xF SLOAD PUSH2 0x258 SWAP1 PUSH1 0x1 PUSH1 0x1 PUSH1 0xA0 SHL SUB AND DUP2 JUMP JUMPDEST CALLVALUE DUP1 ISZERO PUSH2 0x422 JUMPI PUSH0 DUP1 REVERT JUMPDEST POP PUSH2 0x2AC PUSH2 0x431 CALLDATASIZE PUSH1 0x4 PUSH2 0xCD0 JUMP JUMPDEST PUSH2 0x909 JUMP JUMPDEST CALLVALUE DUP1 ISZERO PUSH2 0x441 JUMPI PUSH0 DUP1 REVERT JUMPDEST POP PUSH0 SLOAD PUSH2 0x258 SWAP1 PUSH1 0x1 PUSH1 0x1 PUSH1 0xA0 SHL SUB AND DUP2 JUMP JUMPDEST CALLVALUE DUP1 ISZERO PUSH2 0x45F JUMPI PUSH0 DUP1 REVERT JUMPDEST POP PUSH2 0x28A PUSH2 0x9A9 JUMP JUMPDEST CALLVALUE DUP1 ISZERO PUSH2 0x473 JUMPI PUSH0 DUP1 REVERT JUMPDEST POP PUSH2 0x2AC PUSH2 0x482 CALLDATASIZE PUSH1 0x4 PUSH2 0xD75 JUMP JUMPDEST PUSH2 0x9B9 JUMP JUMPDEST CALLVALUE DUP1 ISZERO PUSH2 0x492 JUMPI PUSH0 DUP1 REVERT JUMPDEST POP PUSH2 0x2AC PUSH2 0xA03 JUMP JUMPDEST CALLVALUE DUP1 ISZERO PUSH2 0x4A6 JUMPI PUSH0 DUP1 REVERT JUMPDEST POP PUSH2 0x28A PUSH1 0x6 SLOAD DUP2 JUMP JUMPDEST CALLVALUE DUP1 ISZERO PUSH2 0x4BB JUMPI PUSH0 DUP1 REVERT JUMPDEST POP PUSH1 0xB SLOAD PUSH2 0x258 SWAP1 PUSH1 0x1 PUSH1 0x1 PUSH1 0xA0 SHL SUB AND DUP2 JUMP JUMPDEST CALLVALUE DUP1 ISZERO PUSH2 0x4DA JUMPI PUSH0 DUP1 REVERT JUMPDEST POP PUSH2 0x28A PUSH1 0x7 SLOAD DUP2 JUMP JUMPDEST CALLVALUE DUP1 ISZERO PUSH2 0x4EF JUMPI PUSH0 DUP1 REVERT JUMPDEST POP PUSH1 0xA SLOAD PUSH2 0x258 SWAP1 PUSH1 0x1 PUSH1 0x1 PUSH1 0xA0 SHL SUB AND DUP2 JUMP JUMPDEST CALLVALUE DUP1 ISZERO PUSH2 0x50E JUMPI PUSH0 DUP1 REVERT JUMPDEST POP PUSH2 0x28A PUSH1 0x5 SLOAD DUP2 JUMP JUMPDEST CALLVALUE DUP1 ISZERO PUSH2 0x523 JUMPI PUSH0 DUP1 REVERT JUMPDEST POP PUSH2 0x28A PUSH1 0x1 SLOAD DUP2 JUMP JUMPDEST CALLVALUE DUP1 ISZERO PUSH2 0x538 JUMPI PUSH0 DUP1 REVERT JUMPDEST POP PUSH1 0xE SLOAD PUSH2 0x258 SWAP1 PUSH1 0x1 PUSH1 0x1 PUSH1 0xA0 SHL SUB AND DUP2 JUMP JUMPDEST CALLVALUE DUP1 ISZERO PUSH2 0x557 JUMPI PUSH0 DUP1 REVERT JUMPDEST POP PUSH1 0xD SLOAD PUSH2 0x258 SWAP1 PUSH1 0x1 PUSH1 0x1 PUSH1 0xA0 SHL SUB AND DUP2 JUMP JUMPDEST CALLVALUE DUP1 ISZERO PUSH2 0x576 JUMPI PUSH0 DUP1 REVERT JUMPDEST POP PUSH1 0x10 SLOAD PUSH2 0x258 SWAP1 PUSH1 0x1 PUSH1 0x1 PUSH1 0xA0 SHL SUB AND DUP2 JUMP JUMPDEST CALLVALUE DUP1 ISZERO PUSH2 0x595 JUMPI PUSH0 DUP1 REVERT JUMPDEST POP PUSH2 0x28A PUSH1 0x4 SLOAD DUP2 JUMP JUMPDEST PUSH0 SLOAD PUSH1 0x1 PUSH1 0x1 PUSH1 0xA0 SHL SUB AND CALLER EQ PUSH2 0x5D1 JUMPI PUSH1 0x40 MLOAD PUSH3 0x461BCD PUSH1 0xE5 SHL DUP2 MSTORE PUSH1 0x4 ADD PUSH2 0x5C8 SWAP1 PUSH2 0xD90 JUMP JUMPDEST PUSH1 0x40 MLOAD DUP1 SWAP2 SUB SWAP1 REVERT JUMPDEST PUSH0 DUP1 SLOAD PUSH1 0xFF PUSH1 0xA0 SHL NOT AND SWAP1 SSTORE JUMP JUMPDEST PUSH0 SLOAD PUSH1 0x1 PUSH1 0x1 PUSH1 0xA0 SHL SUB AND CALLER EQ PUSH2 0x608 JUMPI PUSH1 0x40 MLOAD PUSH3 0x461BCD PUSH1 0xE5 SHL DUP2 MSTORE PUSH1 0x4 ADD PUSH2 0x5C8 SWAP1 PUSH2 0xD90 JUMP JUMPDEST CALLER PUSH32 0x30FDCD4F0C28C5DBCBC3F59AA8E2260C7F58AC45BE2A2DCA652999AF89C33E0 DUP4 DUP4 PUSH0 PUSH2 0x635 PUSH2 0xA9E JUMP JUMPDEST PUSH1 0x40 MLOAD PUSH2 0x645 SWAP5 SWAP4 SWAP3 SWAP2 SWAP1 PUSH2 0xDB7 JUMP JUMPDEST PUSH1 0x40 MLOAD DUP1 SWAP2 SUB SWAP1 LOG2 POP POP JUMP JUMPDEST PUSH0 DUP1 DUP3 SWAP1 POP PUSH0 DUP2 PUSH1 0x1 PUSH1 0x1 PUSH1 0xA0 SHL SUB AND PUSH4 0x3850C7BD PUSH1 0x40 MLOAD DUP2 PUSH4 0xFFFFFFFF AND PUSH1 0xE0 SHL DUP2 MSTORE PUSH1 0x4 ADD PUSH1 0xE0 PUSH1 0x40 MLOAD DUP1 DUP4 SUB DUP2 DUP7 GAS STATICCALL ISZERO DUP1 ISZERO PUSH2 0x693 JUMPI RETURNDATASIZE PUSH0 DUP1 RETURNDATACOPY RETURNDATASIZE PUSH0 REVERT JUMPDEST POP POP POP POP PUSH1 0x40 MLOAD RETURNDATASIZE PUSH1 0x1F NOT PUSH1 0x1F DUP3 ADD AND DUP3 ADD DUP1 PUSH1 0x40 MSTORE POP DUP2 ADD SWAP1 PUSH2 0x6B7 SWAP2 SWAP1 PUSH2 0xDFB JUMP JUMPDEST POP POP POP POP POP POP SWAP1 POP PUSH0 DUP3 PUSH1 0x1 PUSH1 0x1 PUSH1 0xA0 SHL SUB AND PUSH4 0x1A686502 PUSH1 0x40 MLOAD DUP2 PUSH4 0xFFFFFFFF AND PUSH1 0xE0 SHL DUP2 MSTORE PUSH1 0x4 ADD PUSH1 0x20 PUSH1 0x40 MLOAD DUP1 DUP4 SUB DUP2 DUP7 GAS STATICCALL ISZERO DUP1 ISZERO PUSH2 0x6FC JUMPI RETURNDATASIZE PUSH0 DUP1 RETURNDATACOPY RETURNDATASIZE PUSH0 REVERT JUMPDEST POP POP POP POP PUSH1 0x40 MLOAD RETURNDATASIZE PUSH1 0x1F NOT PUSH1 0x1F DUP3 ADD AND DUP3 ADD DUP1 PUSH1 0x40 MSTORE POP DUP2 ADD SWAP1 PUSH2 0x720 SWAP2 SWAP1 PUSH2 0xE97 JUMP JUMPDEST PUSH1 0x1 PUSH1 0x1 PUSH1 0x80 SHL SUB AND SWAP1 POP PUSH0 PUSH2 0x737 DUP8 DUP5 DUP5 PUSH2 0xB2B JUMP JUMPDEST SWAP1 POP PUSH0 PUSH1 0x64 PUSH2 0x747 DUP4 PUSH1 0x1 PUSH2 0xB79 JUMP JUMPDEST PUSH2 0x751 SWAP2 SWAP1 PUSH2 0xB90 JUMP JUMPDEST SWAP1 POP PUSH2 0x75D DUP2 DUP10 PUSH2 0xEBD JUMP JUMPDEST SWAP1 SWAP2 LT ISZERO SWAP8 SWAP7 POP POP POP POP POP POP POP JUMP JUMPDEST PUSH0 SLOAD PUSH1 0x1 PUSH1 0x1 PUSH1 0xA0 SHL SUB AND CALLER EQ PUSH2 0x795 JUMPI PUSH1 0x40 MLOAD PUSH3 0x461BCD PUSH1 0xE5 SHL DUP2 MSTORE PUSH1 0x4 ADD PUSH2 0x5C8 SWAP1 PUSH2 0xD90 JUMP JUMPDEST PUSH1 0x40 MLOAD CALLER SWAP1 SELFBALANCE DUP1 ISZERO PUSH2 0x8FC MUL SWAP2 PUSH0 DUP2 DUP2 DUP2 DUP6 DUP9 DUP9 CALL SWAP4 POP POP POP POP ISZERO DUP1 ISZERO PUSH2 0x7BE JUMPI RETURNDATASIZE PUSH0 DUP1 RETURNDATACOPY RETURNDATASIZE PUSH0 REVERT JUMPDEST POP JUMP JUMPDEST PUSH0 SLOAD PUSH1 0x1 PUSH1 0x1 PUSH1 0xA0 SHL SUB AND CALLER EQ PUSH2 0x7EA JUMPI PUSH1 0x40 MLOAD PUSH3 0x461BCD PUSH1 0xE5 SHL DUP2 MSTORE PUSH1 0x4 ADD PUSH2 0x5C8 SWAP1 PUSH2 0xD90 JUMP JUMPDEST PUSH0 PUSH2 0x7F9 DUP3 PUSH4 0x3B9ACA00 PUSH2 0xB79 JUMP JUMPDEST SWAP1 POP DUP1 SELFBALANCE LT ISZERO PUSH2 0x842 JUMPI PUSH1 0x40 MLOAD PUSH3 0x461BCD PUSH1 0xE5 SHL DUP2 MSTORE PUSH1 0x20 PUSH1 0x4 DUP3 ADD MSTORE PUSH1 0x14 PUSH1 0x24 DUP3 ADD MSTORE PUSH20 0x496E73756666696369656E742062616C616E6365 PUSH1 0x60 SHL PUSH1 0x44 DUP3 ADD MSTORE PUSH1 0x64 ADD PUSH2 0x5C8 JUMP JUMPDEST PUSH0 DUP1 SLOAD PUSH1 0x40 MLOAD PUSH1 0x1 PUSH1 0x1 PUSH1 0xA0 SHL SUB SWAP1 SWAP2 AND SWAP2 DUP4 ISZERO PUSH2 0x8FC MUL SWAP2 DUP5 SWAP2 DUP2 DUP2 DUP2 DUP6 DUP9 DUP9 CALL SWAP4 POP POP POP POP ISZERO DUP1 ISZERO PUSH2 0x878 JUMPI RETURNDATASIZE PUSH0 DUP1 RETURNDATACOPY RETURNDATASIZE PUSH0 REVERT JUMPDEST POP POP POP JUMP JUMPDEST PUSH1 0x9 DUP1 SLOAD PUSH2 0x88A SWAP1 PUSH2 0xED0 JUMP JUMPDEST DUP1 PUSH1 0x1F ADD PUSH1 0x20 DUP1 SWAP2 DIV MUL PUSH1 0x20 ADD PUSH1 0x40 MLOAD SWAP1 DUP2 ADD PUSH1 0x40 MSTORE DUP1 SWAP3 SWAP2 SWAP1 DUP2 DUP2 MSTORE PUSH1 0x20 ADD DUP3 DUP1 SLOAD PUSH2 0x8B6 SWAP1 PUSH2 0xED0 JUMP JUMPDEST DUP1 ISZERO PUSH2 0x901 JUMPI DUP1 PUSH1 0x1F LT PUSH2 0x8D8 JUMPI PUSH2 0x100 DUP1 DUP4 SLOAD DIV MUL DUP4 MSTORE SWAP2 PUSH1 0x20 ADD SWAP2 PUSH2 0x901 JUMP JUMPDEST DUP3 ADD SWAP2 SWAP1 PUSH0 MSTORE PUSH1 0x20 PUSH0 KECCAK256 SWAP1 JUMPDEST DUP2 SLOAD DUP2 MSTORE SWAP1 PUSH1 0x1 ADD SWAP1 PUSH1 0x20 ADD DUP1 DUP4 GT PUSH2 0x8E4 JUMPI DUP3 SWAP1 SUB PUSH1 0x1F AND DUP3 ADD SWAP2 JUMPDEST POP POP POP POP POP DUP2 JUMP JUMPDEST PUSH0 SLOAD PUSH1 0x1 PUSH1 0x1 PUSH1 0xA0 SHL SUB AND CALLER EQ PUSH2 0x932 JUMPI PUSH1 0x40 MLOAD PUSH3 0x461BCD PUSH1 0xE5 SHL DUP2 MSTORE PUSH1 0x4 ADD PUSH2 0x5C8 SWAP1 PUSH2 0xD90 JUMP JUMPDEST CALLER PUSH32 0x30FDCD4F0C28C5DBCBC3F59AA8E2260C7F58AC45BE2A2DCA652999AF89C33E0 DUP3 PUSH0 PUSH2 0x95E PUSH2 0xA9E JUMP JUMPDEST PUSH1 0x40 DUP1 MLOAD PUSH1 0x80 DUP1 DUP3 MSTORE PUSH1 0x12 SWAP1 DUP3 ADD MSTORE PUSH18 0x151A5B59599C985B594818591A9D5CDD1959 PUSH1 0x72 SHL PUSH1 0xA0 DUP3 ADD MSTORE PUSH1 0x20 DUP2 ADD SWAP5 SWAP1 SWAP5 MSTORE DUP4 ADD SWAP2 SWAP1 SWAP2 MSTORE PUSH1 0x60 DUP3 ADD MSTORE PUSH1 0xC0 ADD PUSH1 0x40 MLOAD DUP1 SWAP2 SUB SWAP1 LOG2 POP JUMP JUMPDEST PUSH0 DUP1 PUSH2 0x9B3 PUSH2 0xA9E JUMP JUMPDEST SWAP3 SWAP2 POP POP JUMP JUMPDEST PUSH0 SLOAD PUSH1 0x1 PUSH1 0x1 PUSH1 0xA0 SHL SUB AND CALLER EQ PUSH2 0x9E2 JUMPI PUSH1 0x40 MLOAD PUSH3 0x461BCD PUSH1 0xE5 SHL DUP2 MSTORE PUSH1 0x4 ADD PUSH2 0x5C8 SWAP1 PUSH2 0xD90 JUMP JUMPDEST PUSH0 DUP1 SLOAD PUSH1 0x1 PUSH1 0x1 PUSH1 0xA0 SHL SUB NOT AND PUSH1 0x1 PUSH1 0x1 PUSH1 0xA0 SHL SUB SWAP3 SWAP1 SWAP3 AND SWAP2 SWAP1 SWAP2 OR SWAP1 SSTORE JUMP JUMPDEST PUSH0 SLOAD PUSH1 0x1 PUSH1 0x1 PUSH1 0xA0 SHL SUB AND CALLER EQ PUSH2 0xA2C JUMPI PUSH1 0x40 MLOAD PUSH3 0x461BCD PUSH1 0xE5 SHL DUP2 MSTORE PUSH1 0x4 ADD PUSH2 0x5C8 SWAP1 PUSH2 0xD90 JUMP JUMPDEST CALLER PUSH32 0x30FDCD4F0C28C5DBCBC3F59AA8E2260C7F58AC45BE2A2DCA652999AF89C33E0 PUSH0 DUP1 PUSH2 0xA58 PUSH2 0xA9E JUMP JUMPDEST PUSH1 0x40 DUP1 MLOAD PUSH1 0x80 DUP1 DUP3 MSTORE PUSH1 0xE SWAP1 DUP3 ADD MSTORE PUSH14 0x18DBDB9D995C9D081D1BC81413D3 PUSH1 0x92 SHL PUSH1 0xA0 DUP3 ADD MSTORE PUSH1 0x20 DUP2 ADD SWAP5 SWAP1 SWAP5 MSTORE DUP4 ADD SWAP2 SWAP1 SWAP2 MSTORE PUSH1 0x60 DUP3 ADD MSTORE PUSH1 0xC0 ADD PUSH1 0x40 MLOAD DUP1 SWAP2 SUB SWAP1 LOG2 JUMP JUMPDEST PUSH1 0xE SLOAD PUSH1 0x40 DUP1 MLOAD PUSH4 0x3FABE5A3 PUSH1 0xE2 SHL DUP2 MSTORE SWAP1 MLOAD PUSH0 SWAP3 PUSH1 0x1 PUSH1 0x1 PUSH1 0xA0 SHL SUB AND SWAP2 DUP4 SWAP2 DUP4 SWAP2 PUSH4 0xFEAF968C SWAP2 PUSH1 0x4 DUP1 DUP4 ADD SWAP3 PUSH1 0xA0 SWAP3 SWAP2 SWAP1 DUP3 SWAP1 SUB ADD DUP2 DUP7 GAS STATICCALL ISZERO DUP1 ISZERO PUSH2 0xAE9 JUMPI RETURNDATASIZE PUSH0 DUP1 RETURNDATACOPY RETURNDATASIZE PUSH0 REVERT JUMPDEST POP POP POP POP PUSH1 0x40 MLOAD RETURNDATASIZE PUSH1 0x1F NOT PUSH1 0x1F DUP3 ADD AND DUP3 ADD DUP1 PUSH1 0x40 MSTORE POP DUP2 ADD SWAP1 PUSH2 0xB0D SWAP2 SWAP1 PUSH2 0xF21 JUMP JUMPDEST POP POP POP SWAP2 POP POP DUP1 PUSH5 0x2540BE400 PUSH2 0xB24 SWAP2 SWAP1 PUSH2 0xF6D JUMP JUMPDEST SWAP3 POP POP POP SWAP1 JUMP JUMPDEST PUSH0 DUP2 PUSH2 0xB40 PUSH1 0x1 PUSH1 0x1 PUSH1 0xA0 SHL SUB DUP6 AND DUP7 PUSH2 0xB79 JUMP JUMPDEST PUSH2 0xB4A SWAP2 SWAP1 PUSH2 0xB90 JUMP JUMPDEST SWAP5 SWAP4 POP POP POP POP JUMP JUMPDEST PUSH4 0x4E487B71 PUSH1 0xE0 SHL PUSH0 MSTORE PUSH1 0x11 PUSH1 0x4 MSTORE PUSH1 0x24 PUSH0 REVERT JUMPDEST DUP1 DUP3 ADD DUP1 DUP3 GT ISZERO PUSH2 0x9B3 JUMPI PUSH2 0x9B3 PUSH2 0xB52 JUMP JUMPDEST DUP1 DUP3 MUL DUP2 ISZERO DUP3 DUP3 DIV DUP5 EQ OR PUSH2 0x9B3 JUMPI PUSH2 0x9B3 PUSH2 0xB52 JUMP JUMPDEST PUSH0 DUP3 PUSH2 0xBAA JUMPI PUSH4 0x4E487B71 PUSH1 0xE0 SHL PUSH0 MSTORE PUSH1 0x12 PUSH1 0x4 MSTORE PUSH1 0x24 PUSH0 REVERT JUMPDEST POP DIV SWAP1 JUMP JUMPDEST PUSH4 0x4E487B71 PUSH1 0xE0 SHL PUSH0 MSTORE PUSH1 0x41 PUSH1 0x4 MSTORE PUSH1 0x24 PUSH0 REVERT JUMPDEST PUSH0 DUP3 PUSH1 0x1F DUP4 ADD SLT PUSH2 0xBD2 JUMPI PUSH0 DUP1 REVERT JUMPDEST DUP2 CALLDATALOAD PUSH8 0xFFFFFFFFFFFFFFFF DUP1 DUP3 GT ISZERO PUSH2 0xBED JUMPI PUSH2 0xBED PUSH2 0xBAF JUMP JUMPDEST PUSH1 0x40 MLOAD PUSH1 0x1F DUP4 ADD PUSH1 0x1F NOT SWAP1 DUP2 AND PUSH1 0x3F ADD AND DUP2 ADD SWAP1 DUP3 DUP3 GT DUP2 DUP4 LT OR ISZERO PUSH2 0xC15 JUMPI PUSH2 0xC15 PUSH2 0xBAF JUMP JUMPDEST DUP2 PUSH1 0x40 MSTORE DUP4 DUP2 MSTORE DUP7 PUSH1 0x20 DUP6 DUP9 ADD ADD GT ISZERO PUSH2 0xC2D JUMPI PUSH0 DUP1 REVERT JUMPDEST DUP4 PUSH1 0x20 DUP8 ADD PUSH1 0x20 DUP4 ADD CALLDATACOPY PUSH0 PUSH1 0x20 DUP6 DUP4 ADD ADD MSTORE DUP1 SWAP5 POP POP POP POP POP SWAP3 SWAP2 POP POP JUMP JUMPDEST PUSH0 DUP1 PUSH1 0x40 DUP4 DUP6 SUB SLT ISZERO PUSH2 0xC5D JUMPI PUSH0 DUP1 REVERT JUMPDEST DUP3 CALLDATALOAD PUSH8 0xFFFFFFFFFFFFFFFF DUP2 GT ISZERO PUSH2 0xC73 JUMPI PUSH0 DUP1 REVERT JUMPDEST PUSH2 0xC7F DUP6 DUP3 DUP7 ADD PUSH2 0xBC3 JUMP JUMPDEST SWAP6 PUSH1 0x20 SWAP5 SWAP1 SWAP5 ADD CALLDATALOAD SWAP5 POP POP POP POP JUMP JUMPDEST PUSH1 0x1 PUSH1 0x1 PUSH1 0xA0 SHL SUB DUP2 AND DUP2 EQ PUSH2 0x7BE JUMPI PUSH0 DUP1 REVERT JUMPDEST PUSH0 DUP1 PUSH1 0x40 DUP4 DUP6 SUB SLT ISZERO PUSH2 0xCB3 JUMPI PUSH0 DUP1 REVERT JUMPDEST DUP3 CALLDATALOAD SWAP2 POP PUSH1 0x20 DUP4 ADD CALLDATALOAD PUSH2 0xCC5 DUP2 PUSH2 0xC8E JUMP JUMPDEST DUP1 SWAP2 POP POP SWAP3 POP SWAP3 SWAP1 POP JUMP JUMPDEST PUSH0 PUSH1 0x20 DUP3 DUP5 SUB SLT ISZERO PUSH2 0xCE0 JUMPI PUSH0 DUP1 REVERT JUMPDEST POP CALLDATALOAD SWAP2 SWAP1 POP JUMP JUMPDEST PUSH0 PUSH1 0x20 DUP3 DUP5 SUB SLT ISZERO PUSH2 0xCF7 JUMPI PUSH0 DUP1 REVERT JUMPDEST DUP2 CALLDATALOAD PUSH8 0xFFFFFFFFFFFFFFFF DUP2 GT ISZERO PUSH2 0xD0D JUMPI PUSH0 DUP1 REVERT JUMPDEST PUSH2 0xB4A DUP5 DUP3 DUP6 ADD PUSH2 0xBC3 JUMP JUMPDEST PUSH0 DUP2 MLOAD DUP1 DUP5 MSTORE PUSH0 JUMPDEST DUP2 DUP2 LT ISZERO PUSH2 0xD3D JUMPI PUSH1 0x20 DUP2 DUP6 ADD DUP2 ADD MLOAD DUP7 DUP4 ADD DUP3 ADD MSTORE ADD PUSH2 0xD21 JUMP JUMPDEST POP PUSH0 PUSH1 0x20 DUP3 DUP7 ADD ADD MSTORE PUSH1 0x20 PUSH1 0x1F NOT PUSH1 0x1F DUP4 ADD AND DUP6 ADD ADD SWAP2 POP POP SWAP3 SWAP2 POP POP JUMP JUMPDEST PUSH1 0x20 DUP2 MSTORE PUSH0 PUSH2 0xD6E PUSH1 0x20 DUP4 ADD DUP5 PUSH2 0xD19 JUMP JUMPDEST SWAP4 SWAP3 POP POP POP JUMP JUMPDEST PUSH0 PUSH1 0x20 DUP3 DUP5 SUB SLT ISZERO PUSH2 0xD85 JUMPI PUSH0 DUP1 REVERT JUMPDEST DUP2 CALLDATALOAD PUSH2 0xD6E DUP2 PUSH2 0xC8E JUMP JUMPDEST PUSH1 0x20 DUP1 DUP3 MSTORE PUSH1 0xD SWAP1 DUP3 ADD MSTORE PUSH13 0x2737BA103A34329037BBB732B9 PUSH1 0x99 SHL PUSH1 0x40 DUP3 ADD MSTORE PUSH1 0x60 ADD SWAP1 JUMP JUMPDEST PUSH1 0x80 DUP2 MSTORE PUSH0 PUSH2 0xDC9 PUSH1 0x80 DUP4 ADD DUP8 PUSH2 0xD19 JUMP JUMPDEST PUSH1 0x20 DUP4 ADD SWAP6 SWAP1 SWAP6 MSTORE POP PUSH1 0x40 DUP2 ADD SWAP3 SWAP1 SWAP3 MSTORE PUSH1 0x60 SWAP1 SWAP2 ADD MSTORE SWAP2 SWAP1 POP JUMP JUMPDEST DUP1 MLOAD PUSH2 0xFFFF DUP2 AND DUP2 EQ PUSH2 0xDF6 JUMPI PUSH0 DUP1 REVERT JUMPDEST SWAP2 SWAP1 POP JUMP JUMPDEST PUSH0 DUP1 PUSH0 DUP1 PUSH0 DUP1 PUSH0 PUSH1 0xE0 DUP9 DUP11 SUB SLT ISZERO PUSH2 0xE11 JUMPI PUSH0 DUP1 REVERT JUMPDEST DUP8 MLOAD PUSH2 0xE1C DUP2 PUSH2 0xC8E JUMP JUMPDEST DUP1 SWAP8 POP POP PUSH1 0x20 DUP9 ADD MLOAD DUP1 PUSH1 0x2 SIGNEXTEND DUP2 EQ PUSH2 0xE33 JUMPI PUSH0 DUP1 REVERT JUMPDEST SWAP6 POP PUSH2 0xE41 PUSH1 0x40 DUP10 ADD PUSH2 0xDE5 JUMP JUMPDEST SWAP5 POP PUSH2 0xE4F PUSH1 0x60 DUP10 ADD PUSH2 0xDE5 JUMP JUMPDEST SWAP4 POP PUSH2 0xE5D PUSH1 0x80 DUP10 ADD PUSH2 0xDE5 JUMP JUMPDEST SWAP3 POP PUSH1 0xA0 DUP9 ADD MLOAD PUSH1 0xFF DUP2 AND DUP2 EQ PUSH2 0xE72 JUMPI PUSH0 DUP1 REVERT JUMPDEST PUSH1 0xC0 DUP10 ADD MLOAD SWAP1 SWAP3 POP DUP1 ISZERO ISZERO DUP2 EQ PUSH2 0xE87 JUMPI PUSH0 DUP1 REVERT JUMPDEST DUP1 SWAP2 POP POP SWAP3 SWAP6 SWAP9 SWAP2 SWAP5 SWAP8 POP SWAP3 SWAP6 POP JUMP JUMPDEST PUSH0 PUSH1 0x20 DUP3 DUP5 SUB SLT ISZERO PUSH2 0xEA7 JUMPI PUSH0 DUP1 REVERT JUMPDEST DUP2 MLOAD PUSH1 0x1 PUSH1 0x1 PUSH1 0x80 SHL SUB DUP2 AND DUP2 EQ PUSH2 0xD6E JUMPI PUSH0 DUP1 REVERT JUMPDEST DUP2 DUP2 SUB DUP2 DUP2 GT ISZERO PUSH2 0x9B3 JUMPI PUSH2 0x9B3 PUSH2 0xB52 JUMP JUMPDEST PUSH1 0x1 DUP2 DUP2 SHR SWAP1 DUP3 AND DUP1 PUSH2 0xEE4 JUMPI PUSH1 0x7F DUP3 AND SWAP2 POP JUMPDEST PUSH1 0x20 DUP3 LT DUP2 SUB PUSH2 0xF02 JUMPI PUSH4 0x4E487B71 PUSH1 0xE0 SHL PUSH0 MSTORE PUSH1 0x22 PUSH1 0x4 MSTORE PUSH1 0x24 PUSH0 REVERT JUMPDEST POP SWAP2 SWAP1 POP JUMP JUMPDEST DUP1 MLOAD PUSH10 0xFFFFFFFFFFFFFFFFFFFF DUP2 AND DUP2 EQ PUSH2 0xDF6 JUMPI PUSH0 DUP1 REVERT JUMPDEST PUSH0 DUP1 PUSH0 DUP1 PUSH0 PUSH1 0xA0 DUP7 DUP9 SUB SLT ISZERO PUSH2 0xF35 JUMPI PUSH0 DUP1 REVERT JUMPDEST PUSH2 0xF3E DUP7 PUSH2 0xF08 JUMP JUMPDEST SWAP5 POP PUSH1 0x20 DUP7 ADD MLOAD SWAP4 POP PUSH1 0x40 DUP7 ADD MLOAD SWAP3 POP PUSH1 0x60 DUP7 ADD MLOAD SWAP2 POP PUSH2 0xF61 PUSH1 0x80 DUP8 ADD PUSH2 0xF08 JUMP JUMPDEST SWAP1 POP SWAP3 SWAP6 POP SWAP3 SWAP6 SWAP1 SWAP4 POP JUMP JUMPDEST DUP1 DUP3 MUL PUSH0 DUP3 SLT PUSH1 0x1 PUSH1 0xFF SHL DUP5 EQ AND ISZERO PUSH2 0xF88 JUMPI PUSH2 0xF88 PUSH2 0xB52 JUMP JUMPDEST DUP2 DUP2 SDIV DUP4 EQ DUP3 ISZERO OR PUSH2 0x9B3 JUMPI PUSH2 0x9B3 PUSH2 0xB52 JUMP INVALID LOG2 PUSH5 0x6970667358 0x22 SLT KECCAK256 0x24 0xC9 DIV 0xBE 0xF8 CALLER 0xB6 PUSH32 0xB7E3222024ADC23707813C21CD9BB6542BCD916274D4B3FD64736F6C63430008 EQ STOP CALLER "
		},
		"gasEstimates": {
			"creation": {
				"codeDepositCost": "810000",
				"executionCost": "infinite",
				"totalCost": "infinite"
			},
			"external": {
				"aaveLendingPoolAddressesProvider()": "2393",
				"adjustTimeframe(uint256)": "infinite",
				"checkLiquidity(uint256,address)": "infinite",
				"checkPrice()": "infinite",
				"convertAllToPOL()": "infinite",
				"currentActivity()": "infinite",
				"dexRouters(string)": "infinite",
				"disableTrading()": "26596",
				"gasCostMultiplier()": "2383",
				"initialDeposit()": "2405",
				"initiateTrade(string,uint256)": "infinite",
				"kill()": "infinite",
				"lossThreshold()": "2383",
				"maticBalance()": "2363",
				"nextLogTime()": "2340",
				"owner()": "2392",
				"polToken()": "2392",
				"priceFeedAddress()": "2369",
				"profitThreshold()": "2404",
				"quickSwapRouter()": "2391",
				"setController(address)": "26746",
				"stablecoinBalance()": "2361",
				"tradingEnabled()": "2415",
				"trailingStopLoss()": "2339",
				"uniswapPositionManager()": "2413",
				"uniswapRouter()": "2436",
				"usdcToken()": "2372",
				"usdtToken()": "2436",
				"withdrawInGwei(uint256)": "infinite"
			},
			"internal": {
				"calculateAmountOut(uint256,uint160,uint256)": "196",
				"calculateEMA(uint256[] memory,uint256)": "infinite",
				"calculateFibonacci(uint256,uint256)": "infinite",
				"calculateMACD(uint256[] memory)": "infinite",
				"calculateRSI(uint256[] memory)": "infinite",
				"getPrice()": "infinite",
				"logCurrentActivity()": "infinite"
			}
		},
		"methodIdentifiers": {
			"aaveLendingPoolAddressesProvider()": "238f9b7a",
			"adjustTimeframe(uint256)": "869665e9",
			"checkLiquidity(uint256,address)": "3fb47a3b",
			"checkPrice()": "8fc3047d",
			"convertAllToPOL()": "9d8ef1e1",
			"currentActivity()": "6d546cdd",
			"dexRouters(string)": "5e7ffa67",
			"disableTrading()": "17700f01",
			"gasCostMultiplier()": "a30fb905",
			"initialDeposit()": "e037f889",
			"initiateTrade(string,uint256)": "26c403ed",
			"kill()": "41c0e1b5",
			"lossThreshold()": "c0fc247f",
			"maticBalance()": "1458d9d8",
			"nextLogTime()": "1bf41362",
			"owner()": "8da5cb5b",
			"polToken()": "b6658d07",
			"priceFeedAddress()": "e0abca0b",
			"profitThreshold()": "f974821a",
			"quickSwapRouter()": "e189eb42",
			"setController(address)": "92eefe9b",
			"stablecoinBalance()": "64aabb9e",
			"tradingEnabled()": "4ada218b",
			"trailingStopLoss()": "b3ce56a2",
			"uniswapPositionManager()": "e5047b30",
			"uniswapRouter()": "735de9f7",
			"usdcToken()": "11eac855",
			"usdtToken()": "a98ad46c",
			"withdrawInGwei(uint256)": "457f3cb0"
		}
	},
	"abi": [
		{
			"inputs": [
				{
					"internalType": "address",
					"name": "_polToken",
					"type": "address"
				},
				{
					"internalType": "address",
					"name": "_usdtToken",
					"type": "address"
				},
				{
					"internalType": "address",
					"name": "_usdcToken",
					"type": "address"
				},
				{
					"internalType": "address",
					"name": "_quickSwapRouter",
					"type": "address"
				},
				{
					"internalType": "address",
					"name": "_priceFeedAddress",
					"type": "address"
				},
				{
					"internalType": "address",
					"name": "_uniswapRouter",
					"type": "address"
				},
				{
					"internalType": "address",
					"name": "_uniswapPositionManager",
					"type": "address"
				},
				{
					"internalType": "address",
					"name": "_aaveLendingPoolAddressesProvider",
					"type": "address"
				}
			],
			"stateMutability": "nonpayable",
			"type": "constructor"
		},
		{
			"anonymous": false,
			"inputs": [
				{
					"indexed": false,
					"internalType": "string",
					"name": "activity",
					"type": "string"
				}
			],
			"name": "CurrentActivity",
			"type": "event"
		},
		{
			"anonymous": false,
			"inputs": [
				{
					"indexed": false,
					"internalType": "uint256",
					"name": "currentBalance",
					"type": "uint256"
				},
				{
					"indexed": false,
					"internalType": "uint256",
					"name": "threshold",
					"type": "uint256"
				}
			],
			"name": "StopLossTriggered",
			"type": "event"
		},
		{
			"anonymous": false,
			"inputs": [
				{
					"indexed": false,
					"internalType": "string",
					"name": "message",
					"type": "string"
				}
			],
			"name": "TestEvent",
			"type": "event"
		},
		{
			"anonymous": false,
			"inputs": [
				{
					"indexed": true,
					"internalType": "address",
					"name": "user",
					"type": "address"
				},
				{
					"indexed": false,
					"internalType": "string",
					"name": "tradeType",
					"type": "string"
				},
				{
					"indexed": false,
					"internalType": "uint256",
					"name": "amountIn",
					"type": "uint256"
				},
				{
					"indexed": false,
					"internalType": "uint256",
					"name": "amountOut",
					"type": "uint256"
				},
				{
					"indexed": false,
					"internalType": "uint256",
					"name": "price",
					"type": "uint256"
				}
			],
			"name": "TradeExecuted",
			"type": "event"
		},
		{
			"inputs": [],
			"name": "aaveLendingPoolAddressesProvider",
			"outputs": [
				{
					"internalType": "address",
					"name": "",
					"type": "address"
				}
			],
			"stateMutability": "view",
			"type": "function"
		},
		{
			"inputs": [
				{
					"internalType": "uint256",
					"name": "selectedTimeframe",
					"type": "uint256"
				}
			],
			"name": "adjustTimeframe",
			"outputs": [],
			"stateMutability": "nonpayable",
			"type": "function"
		},
		{
			"inputs": [
				{
					"internalType": "uint256",
					"name": "amountIn",
					"type": "uint256"
				},
				{
					"internalType": "address",
					"name": "poolAddress",
					"type": "address"
				}
			],
			"name": "checkLiquidity",
			"outputs": [
				{
					"internalType": "bool",
					"name": "sufficientLiquidity",
					"type": "bool"
				}
			],
			"stateMutability": "view",
			"type": "function"
		},
		{
			"inputs": [],
			"name": "checkPrice",
			"outputs": [
				{
					"internalType": "uint256",
					"name": "",
					"type": "uint256"
				}
			],
			"stateMutability": "view",
			"type": "function"
		},
		{
			"inputs": [],
			"name": "convertAllToPOL",
			"outputs": [],
			"stateMutability": "nonpayable",
			"type": "function"
		},
		{
			"inputs": [],
			"name": "currentActivity",
			"outputs": [
				{
					"internalType": "string",
					"name": "",
					"type": "string"
				}
			],
			"stateMutability": "view",
			"type": "function"
		},
		{
			"inputs": [
				{
					"internalType": "string",
					"name": "",
					"type": "string"
				}
			],
			"name": "dexRouters",
			"outputs": [
				{
					"internalType": "address",
					"name": "",
					"type": "address"
				}
			],
			"stateMutability": "view",
			"type": "function"
		},
		{
			"inputs": [],
			"name": "disableTrading",
			"outputs": [],
			"stateMutability": "nonpayable",
			"type": "function"
		},
		{
			"inputs": [],
			"name": "gasCostMultiplier",
			"outputs": [
				{
					"internalType": "uint256",
					"name": "",
					"type": "uint256"
				}
			],
			"stateMutability": "view",
			"type": "function"
		},
		{
			"inputs": [],
			"name": "initialDeposit",
			"outputs": [
				{
					"internalType": "uint256",
					"name": "",
					"type": "uint256"
				}
			],
			"stateMutability": "view",
			"type": "function"
		},
		{
			"inputs": [
				{
					"internalType": "string",
					"name": "tradeType",
					"type": "string"
				},
				{
					"internalType": "uint256",
					"name": "amount",
					"type": "uint256"
				}
			],
			"name": "initiateTrade",
			"outputs": [],
			"stateMutability": "nonpayable",
			"type": "function"
		},
		{
			"inputs": [],
			"name": "kill",
			"outputs": [],
			"stateMutability": "nonpayable",
			"type": "function"
		},
		{
			"inputs": [],
			"name": "lossThreshold",
			"outputs": [
				{
					"internalType": "uint256",
					"name": "",
					"type": "uint256"
				}
			],
			"stateMutability": "view",
			"type": "function"
		},
		{
			"inputs": [],
			"name": "maticBalance",
			"outputs": [
				{
					"internalType": "uint256",
					"name": "",
					"type": "uint256"
				}
			],
			"stateMutability": "view",
			"type": "function"
		},
		{
			"inputs": [],
			"name": "nextLogTime",
			"outputs": [
				{
					"internalType": "uint256",
					"name": "",
					"type": "uint256"
				}
			],
			"stateMutability": "view",
			"type": "function"
		},
		{
			"inputs": [],
			"name": "owner",
			"outputs": [
				{
					"internalType": "address",
					"name": "",
					"type": "address"
				}
			],
			"stateMutability": "view",
			"type": "function"
		},
		{
			"inputs": [],
			"name": "polToken",
			"outputs": [
				{
					"internalType": "address",
					"name": "",
					"type": "address"
				}
			],
			"stateMutability": "view",
			"type": "function"
		},
		{
			"inputs": [],
			"name": "priceFeedAddress",
			"outputs": [
				{
					"internalType": "address",
					"name": "",
					"type": "address"
				}
			],
			"stateMutability": "view",
			"type": "function"
		},
		{
			"inputs": [],
			"name": "profitThreshold",
			"outputs": [
				{
					"internalType": "uint256",
					"name": "",
					"type": "uint256"
				}
			],
			"stateMutability": "view",
			"type": "function"
		},
		{
			"inputs": [],
			"name": "quickSwapRouter",
			"outputs": [
				{
					"internalType": "address",
					"name": "",
					"type": "address"
				}
			],
			"stateMutability": "view",
			"type": "function"
		},
		{
			"inputs": [
				{
					"internalType": "address",
					"name": "controller",
					"type": "address"
				}
			],
			"name": "setController",
			"outputs": [],
			"stateMutability": "nonpayable",
			"type": "function"
		},
		{
			"inputs": [],
			"name": "stablecoinBalance",
			"outputs": [
				{
					"internalType": "uint256",
					"name": "",
					"type": "uint256"
				}
			],
			"stateMutability": "view",
			"type": "function"
		},
		{
			"inputs": [],
			"name": "tradingEnabled",
			"outputs": [
				{
					"internalType": "bool",
					"name": "",
					"type": "bool"
				}
			],
			"stateMutability": "view",
			"type": "function"
		},
		{
			"inputs": [],
			"name": "trailingStopLoss",
			"outputs": [
				{
					"internalType": "uint256",
					"name": "",
					"type": "uint256"
				}
			],
			"stateMutability": "view",
			"type": "function"
		},
		{
			"inputs": [],
			"name": "uniswapPositionManager",
			"outputs": [
				{
					"internalType": "address",
					"name": "",
					"type": "address"
				}
			],
			"stateMutability": "view",
			"type": "function"
		},
		{
			"inputs": [],
			"name": "uniswapRouter",
			"outputs": [
				{
					"internalType": "address",
					"name": "",
					"type": "address"
				}
			],
			"stateMutability": "view",
			"type": "function"
		},
		{
			"inputs": [],
			"name": "usdcToken",
			"outputs": [
				{
					"internalType": "address",
					"name": "",
					"type": "address"
				}
			],
			"stateMutability": "view",
			"type": "function"
		},
		{
			"inputs": [],
			"name": "usdtToken",
			"outputs": [
				{
					"internalType": "address",
					"name": "",
					"type": "address"
				}
			],
			"stateMutability": "view",
			"type": "function"
		},
		{
			"inputs": [
				{
					"internalType": "uint256",
					"name": "amountInGwei",
					"type": "uint256"
				}
			],
			"name": "withdrawInGwei",
			"outputs": [],
			"stateMutability": "nonpayable",
			"type": "function"
		},
		{
			"stateMutability": "payable",
			"type": "receive"
		}
	]
}